{
  "_format": "hh-sol-artifact-1",
  "contractName": "VanERC20",
  "sourceName": "contracts/VanERC20.sol",
  "abi": [
    {
      "inputs": [
        {
          "internalType": "address",
          "name": "initialOwner",
          "type": "address"
        }
      ],
      "stateMutability": "nonpayable",
      "type": "constructor"
    },
    {
      "inputs": [],
      "name": "ECDSAInvalidSignature",
      "type": "error"
    },
    {
      "inputs": [
        {
          "internalType": "uint256",
          "name": "length",
          "type": "uint256"
        }
      ],
      "name": "ECDSAInvalidSignatureLength",
      "type": "error"
    },
    {
      "inputs": [
        {
          "internalType": "bytes32",
          "name": "s",
          "type": "bytes32"
        }
      ],
      "name": "ECDSAInvalidSignatureS",
      "type": "error"
    },
    {
      "inputs": [
        {
          "internalType": "address",
          "name": "spender",
          "type": "address"
        },
        {
          "internalType": "uint256",
          "name": "allowance",
          "type": "uint256"
        },
        {
          "internalType": "uint256",
          "name": "needed",
          "type": "uint256"
        }
      ],
      "name": "ERC20InsufficientAllowance",
      "type": "error"
    },
    {
      "inputs": [
        {
          "internalType": "address",
          "name": "sender",
          "type": "address"
        },
        {
          "internalType": "uint256",
          "name": "balance",
          "type": "uint256"
        },
        {
          "internalType": "uint256",
          "name": "needed",
          "type": "uint256"
        }
      ],
      "name": "ERC20InsufficientBalance",
      "type": "error"
    },
    {
      "inputs": [
        {
          "internalType": "address",
          "name": "approver",
          "type": "address"
        }
      ],
      "name": "ERC20InvalidApprover",
      "type": "error"
    },
    {
      "inputs": [
        {
          "internalType": "address",
          "name": "receiver",
          "type": "address"
        }
      ],
      "name": "ERC20InvalidReceiver",
      "type": "error"
    },
    {
      "inputs": [
        {
          "internalType": "address",
          "name": "sender",
          "type": "address"
        }
      ],
      "name": "ERC20InvalidSender",
      "type": "error"
    },
    {
      "inputs": [
        {
          "internalType": "address",
          "name": "spender",
          "type": "address"
        }
      ],
      "name": "ERC20InvalidSpender",
      "type": "error"
    },
    {
      "inputs": [
        {
          "internalType": "uint256",
          "name": "deadline",
          "type": "uint256"
        }
      ],
      "name": "ERC2612ExpiredSignature",
      "type": "error"
    },
    {
      "inputs": [
        {
          "internalType": "address",
          "name": "signer",
          "type": "address"
        },
        {
          "internalType": "address",
          "name": "owner",
          "type": "address"
        }
      ],
      "name": "ERC2612InvalidSigner",
      "type": "error"
    },
    {
      "inputs": [
        {
          "internalType": "address",
          "name": "account",
          "type": "address"
        },
        {
          "internalType": "uint256",
          "name": "currentNonce",
          "type": "uint256"
        }
      ],
      "name": "InvalidAccountNonce",
      "type": "error"
    },
    {
      "inputs": [],
      "name": "InvalidShortString",
      "type": "error"
    },
    {
      "inputs": [
        {
          "internalType": "address",
          "name": "owner",
          "type": "address"
        }
      ],
      "name": "OwnableInvalidOwner",
      "type": "error"
    },
    {
      "inputs": [
        {
          "internalType": "address",
          "name": "account",
          "type": "address"
        }
      ],
      "name": "OwnableUnauthorizedAccount",
      "type": "error"
    },
    {
      "inputs": [
        {
          "internalType": "string",
          "name": "str",
          "type": "string"
        }
      ],
      "name": "StringTooLong",
      "type": "error"
    },
    {
      "anonymous": false,
      "inputs": [
        {
          "indexed": true,
          "internalType": "address",
          "name": "owner",
          "type": "address"
        },
        {
          "indexed": true,
          "internalType": "address",
          "name": "spender",
          "type": "address"
        },
        {
          "indexed": false,
          "internalType": "uint256",
          "name": "value",
          "type": "uint256"
        }
      ],
      "name": "Approval",
      "type": "event"
    },
    {
      "anonymous": false,
      "inputs": [],
      "name": "EIP712DomainChanged",
      "type": "event"
    },
    {
      "anonymous": false,
      "inputs": [
        {
          "indexed": true,
          "internalType": "address",
          "name": "previousOwner",
          "type": "address"
        },
        {
          "indexed": true,
          "internalType": "address",
          "name": "newOwner",
          "type": "address"
        }
      ],
      "name": "OwnershipTransferred",
      "type": "event"
    },
    {
      "anonymous": false,
      "inputs": [
        {
          "indexed": true,
          "internalType": "address",
          "name": "from",
          "type": "address"
        },
        {
          "indexed": true,
          "internalType": "address",
          "name": "to",
          "type": "address"
        },
        {
          "indexed": false,
          "internalType": "uint256",
          "name": "value",
          "type": "uint256"
        }
      ],
      "name": "Transfer",
      "type": "event"
    },
    {
      "inputs": [],
      "name": "DOMAIN_SEPARATOR",
      "outputs": [
        {
          "internalType": "bytes32",
          "name": "",
          "type": "bytes32"
        }
      ],
      "stateMutability": "view",
      "type": "function"
    },
    {
      "inputs": [
        {
          "internalType": "address",
          "name": "owner",
          "type": "address"
        },
        {
          "internalType": "address",
          "name": "spender",
          "type": "address"
        }
      ],
      "name": "allowance",
      "outputs": [
        {
          "internalType": "uint256",
          "name": "",
          "type": "uint256"
        }
      ],
      "stateMutability": "view",
      "type": "function"
    },
    {
      "inputs": [
        {
          "internalType": "address",
          "name": "spender",
          "type": "address"
        },
        {
          "internalType": "uint256",
          "name": "value",
          "type": "uint256"
        }
      ],
      "name": "approve",
      "outputs": [
        {
          "internalType": "bool",
          "name": "",
          "type": "bool"
        }
      ],
      "stateMutability": "nonpayable",
      "type": "function"
    },
    {
      "inputs": [
        {
          "internalType": "address",
          "name": "account",
          "type": "address"
        }
      ],
      "name": "balanceOf",
      "outputs": [
        {
          "internalType": "uint256",
          "name": "",
          "type": "uint256"
        }
      ],
      "stateMutability": "view",
      "type": "function"
    },
    {
      "inputs": [],
      "name": "buy",
      "outputs": [],
      "stateMutability": "payable",
      "type": "function"
    },
    {
      "inputs": [],
      "name": "decimals",
      "outputs": [
        {
          "internalType": "uint8",
          "name": "",
          "type": "uint8"
        }
      ],
      "stateMutability": "view",
      "type": "function"
    },
    {
      "inputs": [],
      "name": "eip712Domain",
      "outputs": [
        {
          "internalType": "bytes1",
          "name": "fields",
          "type": "bytes1"
        },
        {
          "internalType": "string",
          "name": "name",
          "type": "string"
        },
        {
          "internalType": "string",
          "name": "version",
          "type": "string"
        },
        {
          "internalType": "uint256",
          "name": "chainId",
          "type": "uint256"
        },
        {
          "internalType": "address",
          "name": "verifyingContract",
          "type": "address"
        },
        {
          "internalType": "bytes32",
          "name": "salt",
          "type": "bytes32"
        },
        {
          "internalType": "uint256[]",
          "name": "extensions",
          "type": "uint256[]"
        }
      ],
      "stateMutability": "view",
      "type": "function"
    },
    {
      "inputs": [
        {
          "internalType": "address",
          "name": "to",
          "type": "address"
        },
        {
          "internalType": "uint256",
          "name": "amount",
          "type": "uint256"
        }
      ],
      "name": "mint",
      "outputs": [],
      "stateMutability": "nonpayable",
      "type": "function"
    },
    {
      "inputs": [],
      "name": "name",
      "outputs": [
        {
          "internalType": "string",
          "name": "",
          "type": "string"
        }
      ],
      "stateMutability": "view",
      "type": "function"
    },
    {
      "inputs": [
        {
          "internalType": "address",
          "name": "owner",
          "type": "address"
        }
      ],
      "name": "nonces",
      "outputs": [
        {
          "internalType": "uint256",
          "name": "",
          "type": "uint256"
        }
      ],
      "stateMutability": "view",
      "type": "function"
    },
    {
      "inputs": [],
      "name": "owner",
      "outputs": [
        {
          "internalType": "address",
          "name": "",
          "type": "address"
        }
      ],
      "stateMutability": "view",
      "type": "function"
    },
    {
      "inputs": [
        {
          "internalType": "address",
          "name": "owner",
          "type": "address"
        },
        {
          "internalType": "address",
          "name": "spender",
          "type": "address"
        },
        {
          "internalType": "uint256",
          "name": "value",
          "type": "uint256"
        },
        {
          "internalType": "uint256",
          "name": "deadline",
          "type": "uint256"
        },
        {
          "internalType": "uint8",
          "name": "v",
          "type": "uint8"
        },
        {
          "internalType": "bytes32",
          "name": "r",
          "type": "bytes32"
        },
        {
          "internalType": "bytes32",
          "name": "s",
          "type": "bytes32"
        }
      ],
      "name": "permit",
      "outputs": [],
      "stateMutability": "nonpayable",
      "type": "function"
    },
    {
      "inputs": [],
      "name": "renounceOwnership",
      "outputs": [],
      "stateMutability": "nonpayable",
      "type": "function"
    },
    {
      "inputs": [],
      "name": "symbol",
      "outputs": [
        {
          "internalType": "string",
          "name": "",
          "type": "string"
        }
      ],
      "stateMutability": "view",
      "type": "function"
    },
    {
      "inputs": [],
      "name": "totalSupply",
      "outputs": [
        {
          "internalType": "uint256",
          "name": "",
          "type": "uint256"
        }
      ],
      "stateMutability": "view",
      "type": "function"
    },
    {
      "inputs": [
        {
          "internalType": "address",
          "name": "to",
          "type": "address"
        },
        {
          "internalType": "uint256",
          "name": "value",
          "type": "uint256"
        }
      ],
      "name": "transfer",
      "outputs": [
        {
          "internalType": "bool",
          "name": "",
          "type": "bool"
        }
      ],
      "stateMutability": "nonpayable",
      "type": "function"
    },
    {
      "inputs": [
        {
          "internalType": "address",
          "name": "from",
          "type": "address"
        },
        {
          "internalType": "address",
          "name": "to",
          "type": "address"
        },
        {
          "internalType": "uint256",
          "name": "value",
          "type": "uint256"
        }
      ],
      "name": "transferFrom",
      "outputs": [
        {
          "internalType": "bool",
          "name": "",
          "type": "bool"
        }
      ],
      "stateMutability": "nonpayable",
      "type": "function"
    },
    {
      "inputs": [
        {
          "internalType": "address",
          "name": "newOwner",
          "type": "address"
        }
      ],
      "name": "transferOwnership",
      "outputs": [],
      "stateMutability": "nonpayable",
      "type": "function"
    },
    {
      "inputs": [],
      "name": "transferTaxRate",
      "outputs": [
        {
          "internalType": "uint256",
          "name": "",
          "type": "uint256"
        }
      ],
      "stateMutability": "view",
      "type": "function"
    }
  ],
  "bytecode": "0x610160604052600560095534801561001657600080fd5b50604051612cfc380380612cfc833981810160405281019061003891906104ad565b806040518060400160405280600881526020017f56616e546f6b656e000000000000000000000000000000000000000000000000815250806040518060400160405280600181526020017f31000000000000000000000000000000000000000000000000000000000000008152506040518060400160405280600881526020017f56616e546f6b656e0000000000000000000000000000000000000000000000008152506040518060400160405280600381526020017f56414e00000000000000000000000000000000000000000000000000000000008152508160039081610121919061072a565b508060049081610131919061072a565b50505061014860058361026760201b90919060201c565b610120818152505061016460068261026760201b90919060201c565b6101408181525050818051906020012060e08181525050808051906020012061010081815250504660a081815250506101a16102b760201b60201c565b608081815250503073ffffffffffffffffffffffffffffffffffffffff1660c08173ffffffffffffffffffffffffffffffffffffffff1681525050505050600073ffffffffffffffffffffffffffffffffffffffff168173ffffffffffffffffffffffffffffffffffffffff16036102515760006040517f1e4fbdf7000000000000000000000000000000000000000000000000000000008152600401610248919061080b565b60405180910390fd5b6102608161031260201b60201c565b50506109df565b600060208351101561028957610282836103d860201b60201c565b90506102b1565b826102998361044060201b60201c565b60000190816102a8919061072a565b5060ff60001b90505b92915050565b60007f8b73c3c69bb8fe3d512ecc4cf759cc79239f7b179b0ffacaa9a75d522b39400f60e0516101005146306040516020016102f795949392919061084e565b60405160208183030381529060405280519060200120905090565b6000600860009054906101000a900473ffffffffffffffffffffffffffffffffffffffff16905081600860006101000a81548173ffffffffffffffffffffffffffffffffffffffff021916908373ffffffffffffffffffffffffffffffffffffffff1602179055508173ffffffffffffffffffffffffffffffffffffffff168173ffffffffffffffffffffffffffffffffffffffff167f8be0079c531659141344cd1fd0a4f28419497f9722a3daafe3b4186f6b6457e060405160405180910390a35050565b600080829050601f8151111561042557826040517f305a27a900000000000000000000000000000000000000000000000000000000815260040161041c9190610926565b60405180910390fd5b80518161043190610978565b60001c1760001b915050919050565b6000819050919050565b600080fd5b600073ffffffffffffffffffffffffffffffffffffffff82169050919050565b600061047a8261044f565b9050919050565b61048a8161046f565b811461049557600080fd5b50565b6000815190506104a781610481565b92915050565b6000602082840312156104c3576104c261044a565b5b60006104d184828501610498565b91505092915050565b600081519050919050565b7f4e487b7100000000000000000000000000000000000000000000000000000000600052604160045260246000fd5b7f4e487b7100000000000000000000000000000000000000000000000000000000600052602260045260246000fd5b6000600282049050600182168061055b57607f821691505b60208210810361056e5761056d610514565b5b50919050565b60008190508160005260206000209050919050565b60006020601f8301049050919050565b600082821b905092915050565b6000600883026105d67fffffffffffffffffffffffffffffffffffffffffffffffffffffffffffffffff82610599565b6105e08683610599565b95508019841693508086168417925050509392505050565b6000819050919050565b6000819050919050565b600061062761062261061d846105f8565b610602565b6105f8565b9050919050565b6000819050919050565b6106418361060c565b61065561064d8261062e565b8484546105a6565b825550505050565b600090565b61066a61065d565b610675818484610638565b505050565b5b818110156106995761068e600082610662565b60018101905061067b565b5050565b601f8211156106de576106af81610574565b6106b884610589565b810160208510156106c7578190505b6106db6106d385610589565b83018261067a565b50505b505050565b600082821c905092915050565b6000610701600019846008026106e3565b1980831691505092915050565b600061071a83836106f0565b9150826002028217905092915050565b610733826104da565b67ffffffffffffffff81111561074c5761074b6104e5565b5b6107568254610543565b61076182828561069d565b600060209050601f8311600181146107945760008415610782578287015190505b61078c858261070e565b8655506107f4565b601f1984166107a286610574565b60005b828110156107ca578489015182556001820191506020850194506020810190506107a5565b868310156107e757848901516107e3601f8916826106f0565b8355505b6001600288020188555050505b505050505050565b6108058161046f565b82525050565b600060208201905061082060008301846107fc565b92915050565b6000819050919050565b61083981610826565b82525050565b610848816105f8565b82525050565b600060a0820190506108636000830188610830565b6108706020830187610830565b61087d6040830186610830565b61088a606083018561083f565b61089760808301846107fc565b9695505050505050565b600082825260208201905092915050565b60005b838110156108d05780820151818401526020810190506108b5565b60008484015250505050565b6000601f19601f8301169050919050565b60006108f8826104da565b61090281856108a1565b93506109128185602086016108b2565b61091b816108dc565b840191505092915050565b6000602082019050818103600083015261094081846108ed565b905092915050565b600081519050919050565b6000819050602082019050919050565b600061096f8251610826565b80915050919050565b600061098382610948565b8261098d84610953565b905061099881610963565b925060208210156109d8576109d37fffffffffffffffffffffffffffffffffffffffffffffffffffffffffffffffff83602003600802610599565b831692505b5050919050565b60805160a05160c05160e0516101005161012051610140516122c3610a39600039600061101401526000610fd9015260006115290152600061150801526000610d0501526000610d5b01526000610d8401526122c36000f3fe6080604052600436106101145760003560e01c80637ecebe00116100a0578063a9059cbb11610064578063a9059cbb1461038a578063b65d08b0146103c7578063d505accf146103f2578063dd62ed3e1461041b578063f2fde38b1461045857610114565b80637ecebe00146102bc57806384b0196e146102f95780638da5cb5b1461032a57806395d89b4114610355578063a6f2ae3a1461038057610114565b8063313ce567116100e7578063313ce567146101e95780633644e5151461021457806340c10f191461023f57806370a0823114610268578063715018a6146102a557610114565b806306fdde0314610119578063095ea7b31461014457806318160ddd1461018157806323b872dd146101ac575b600080fd5b34801561012557600080fd5b5061012e610481565b60405161013b9190611a16565b60405180910390f35b34801561015057600080fd5b5061016b60048036038101906101669190611ad1565b610513565b6040516101789190611b2c565b60405180910390f35b34801561018d57600080fd5b50610196610536565b6040516101a39190611b56565b60405180910390f35b3480156101b857600080fd5b506101d360048036038101906101ce9190611b71565b610540565b6040516101e09190611b2c565b60405180910390f35b3480156101f557600080fd5b506101fe6105dd565b60405161020b9190611be0565b60405180910390f35b34801561022057600080fd5b506102296105e6565b6040516102369190611c14565b60405180910390f35b34801561024b57600080fd5b5061026660048036038101906102619190611ad1565b6105f5565b005b34801561027457600080fd5b5061028f600480360381019061028a9190611c2f565b61060b565b60405161029c9190611b56565b60405180910390f35b3480156102b157600080fd5b506102ba610653565b005b3480156102c857600080fd5b506102e360048036038101906102de9190611c2f565b610667565b6040516102f09190611b56565b60405180910390f35b34801561030557600080fd5b5061030e610679565b6040516103219796959493929190611d64565b60405180910390f35b34801561033657600080fd5b5061033f610723565b60405161034c9190611de8565b60405180910390f35b34801561036157600080fd5b5061036a61074d565b6040516103779190611a16565b60405180910390f35b6103886107df565b005b34801561039657600080fd5b506103b160048036038101906103ac9190611ad1565b6107f1565b6040516103be9190611b2c565b60405180910390f35b3480156103d357600080fd5b506103dc610882565b6040516103e99190611b56565b60405180910390f35b3480156103fe57600080fd5b5061041960048036038101906104149190611e5b565b610888565b005b34801561042757600080fd5b50610442600480360381019061043d9190611efd565b6109d0565b60405161044f9190611b56565b60405180910390f35b34801561046457600080fd5b5061047f600480360381019061047a9190611c2f565b610a57565b005b60606003805461049090611f6c565b80601f01602080910402602001604051908101604052809291908181526020018280546104bc90611f6c565b80156105095780601f106104de57610100808354040283529160200191610509565b820191906000526020600020905b8154815290600101906020018083116104ec57829003601f168201915b5050505050905090565b60008061051e610add565b905061052b818585610ae5565b600191505092915050565b6000600254905090565b60008061054b610add565b9050610558858285610af7565b600060646009548561056a9190611fcc565b610574919061203d565b905060008185610584919061206e565b9050610591878783610b8b565b3073ffffffffffffffffffffffffffffffffffffffff168673ffffffffffffffffffffffffffffffffffffffff16146105cf576105ce8783610c7f565b5b600193505050509392505050565b60006012905090565b60006105f0610d01565b905090565b6105fd610db8565b6106078282610e3f565b5050565b60008060008373ffffffffffffffffffffffffffffffffffffffff1673ffffffffffffffffffffffffffffffffffffffff168152602001908152602001600020549050919050565b61065b610db8565b6106656000610ec1565b565b600061067282610f87565b9050919050565b60006060806000806000606061068d610fd0565b61069561100b565b46306000801b600067ffffffffffffffff8111156106b6576106b56120a2565b5b6040519080825280602002602001820160405280156106e45781602001602082028036833780820191505090505b507f0f00000000000000000000000000000000000000000000000000000000000000959493929190965096509650965096509650965090919293949596565b6000600860009054906101000a900473ffffffffffffffffffffffffffffffffffffffff16905090565b60606004805461075c90611f6c565b80601f016020809104026020016040519081016040528092919081815260200182805461078890611f6c565b80156107d55780601f106107aa576101008083540402835291602001916107d5565b820191906000526020600020905b8154815290600101906020018083116107b857829003601f168201915b5050505050905090565b60003490506107ee3382610e3f565b50565b6000806107fc610add565b905060006064600954856108109190611fcc565b61081a919061203d565b90506000818561082a919061206e565b9050610837838783610b8b565b3073ffffffffffffffffffffffffffffffffffffffff168673ffffffffffffffffffffffffffffffffffffffff1614610875576108748383610c7f565b5b6001935050505092915050565b60095481565b834211156108cd57836040517f627913020000000000000000000000000000000000000000000000000000000081526004016108c49190611b56565b60405180910390fd5b60007f6e71edae12b1b97f4d1f60370fef10105fa2faae0126114a169c64845d6126c98888886108fc8c611046565b89604051602001610912969594939291906120d1565b60405160208183030381529060405280519060200120905060006109358261109d565b90506000610945828787876110b7565b90508973ffffffffffffffffffffffffffffffffffffffff168173ffffffffffffffffffffffffffffffffffffffff16146109b957808a6040517f4b800e460000000000000000000000000000000000000000000000000000000081526004016109b0929190612132565b60405180910390fd5b6109c48a8a8a610ae5565b50505050505050505050565b6000600160008473ffffffffffffffffffffffffffffffffffffffff1673ffffffffffffffffffffffffffffffffffffffff16815260200190815260200160002060008373ffffffffffffffffffffffffffffffffffffffff1673ffffffffffffffffffffffffffffffffffffffff16815260200190815260200160002054905092915050565b610a5f610db8565b600073ffffffffffffffffffffffffffffffffffffffff168173ffffffffffffffffffffffffffffffffffffffff1603610ad15760006040517f1e4fbdf7000000000000000000000000000000000000000000000000000000008152600401610ac89190611de8565b60405180910390fd5b610ada81610ec1565b50565b600033905090565b610af283838360016110e7565b505050565b6000610b0384846109d0565b90507fffffffffffffffffffffffffffffffffffffffffffffffffffffffffffffffff8114610b855781811015610b75578281836040517ffb8f41b2000000000000000000000000000000000000000000000000000000008152600401610b6c9392919061215b565b60405180910390fd5b610b84848484840360006110e7565b5b50505050565b600073ffffffffffffffffffffffffffffffffffffffff168373ffffffffffffffffffffffffffffffffffffffff1603610bfd5760006040517f96c6fd1e000000000000000000000000000000000000000000000000000000008152600401610bf49190611de8565b60405180910390fd5b600073ffffffffffffffffffffffffffffffffffffffff168273ffffffffffffffffffffffffffffffffffffffff1603610c6f5760006040517fec442f05000000000000000000000000000000000000000000000000000000008152600401610c669190611de8565b60405180910390fd5b610c7a8383836112be565b505050565b600073ffffffffffffffffffffffffffffffffffffffff168273ffffffffffffffffffffffffffffffffffffffff1603610cf15760006040517f96c6fd1e000000000000000000000000000000000000000000000000000000008152600401610ce89190611de8565b60405180910390fd5b610cfd826000836112be565b5050565b60007f000000000000000000000000000000000000000000000000000000000000000073ffffffffffffffffffffffffffffffffffffffff163073ffffffffffffffffffffffffffffffffffffffff16148015610d7d57507f000000000000000000000000000000000000000000000000000000000000000046145b15610daa577f00000000000000000000000000000000000000000000000000000000000000009050610db5565b610db26114e3565b90505b90565b610dc0610add565b73ffffffffffffffffffffffffffffffffffffffff16610dde610723565b73ffffffffffffffffffffffffffffffffffffffff1614610e3d57610e01610add565b6040517f118cdaa7000000000000000000000000000000000000000000000000000000008152600401610e349190611de8565b60405180910390fd5b565b600073ffffffffffffffffffffffffffffffffffffffff168273ffffffffffffffffffffffffffffffffffffffff1603610eb15760006040517fec442f05000000000000000000000000000000000000000000000000000000008152600401610ea89190611de8565b60405180910390fd5b610ebd600083836112be565b5050565b6000600860009054906101000a900473ffffffffffffffffffffffffffffffffffffffff16905081600860006101000a81548173ffffffffffffffffffffffffffffffffffffffff021916908373ffffffffffffffffffffffffffffffffffffffff1602179055508173ffffffffffffffffffffffffffffffffffffffff168173ffffffffffffffffffffffffffffffffffffffff167f8be0079c531659141344cd1fd0a4f28419497f9722a3daafe3b4186f6b6457e060405160405180910390a35050565b6000600760008373ffffffffffffffffffffffffffffffffffffffff1673ffffffffffffffffffffffffffffffffffffffff168152602001908152602001600020549050919050565b606061100660057f000000000000000000000000000000000000000000000000000000000000000061157990919063ffffffff16565b905090565b606061104160067f000000000000000000000000000000000000000000000000000000000000000061157990919063ffffffff16565b905090565b6000600760008373ffffffffffffffffffffffffffffffffffffffff1673ffffffffffffffffffffffffffffffffffffffff1681526020019081526020016000206000815480929190600101919050559050919050565b60006110b06110aa610d01565b83611629565b9050919050565b6000806000806110c98888888861166a565b9250925092506110d9828261175e565b829350505050949350505050565b600073ffffffffffffffffffffffffffffffffffffffff168473ffffffffffffffffffffffffffffffffffffffff16036111595760006040517fe602df050000000000000000000000000000000000000000000000000000000081526004016111509190611de8565b60405180910390fd5b600073ffffffffffffffffffffffffffffffffffffffff168373ffffffffffffffffffffffffffffffffffffffff16036111cb5760006040517f94280d620000000000000000000000000000000000000000000000000000000081526004016111c29190611de8565b60405180910390fd5b81600160008673ffffffffffffffffffffffffffffffffffffffff1673ffffffffffffffffffffffffffffffffffffffff16815260200190815260200160002060008573ffffffffffffffffffffffffffffffffffffffff1673ffffffffffffffffffffffffffffffffffffffff1681526020019081526020016000208190555080156112b8578273ffffffffffffffffffffffffffffffffffffffff168473ffffffffffffffffffffffffffffffffffffffff167f8c5be1e5ebec7d5bd14f71427d1e84f3dd0314c0f7b2291e5b200ac8c7c3b925846040516112af9190611b56565b60405180910390a35b50505050565b600073ffffffffffffffffffffffffffffffffffffffff168373ffffffffffffffffffffffffffffffffffffffff16036113105780600260008282546113049190612192565b925050819055506113e3565b60008060008573ffffffffffffffffffffffffffffffffffffffff1673ffffffffffffffffffffffffffffffffffffffff1681526020019081526020016000205490508181101561139c578381836040517fe450d38c0000000000000000000000000000000000000000000000000000000081526004016113939392919061215b565b60405180910390fd5b8181036000808673ffffffffffffffffffffffffffffffffffffffff1673ffffffffffffffffffffffffffffffffffffffff16815260200190815260200160002081905550505b600073ffffffffffffffffffffffffffffffffffffffff168273ffffffffffffffffffffffffffffffffffffffff160361142c5780600260008282540392505081905550611479565b806000808473ffffffffffffffffffffffffffffffffffffffff1673ffffffffffffffffffffffffffffffffffffffff168152602001908152602001600020600082825401925050819055505b8173ffffffffffffffffffffffffffffffffffffffff168373ffffffffffffffffffffffffffffffffffffffff167fddf252ad1be2c89b69c2b068fc378daa952ba7f163c4a11628f55a4df523b3ef836040516114d69190611b56565b60405180910390a3505050565b60007f8b73c3c69bb8fe3d512ecc4cf759cc79239f7b179b0ffacaa9a75d522b39400f7f00000000000000000000000000000000000000000000000000000000000000007f0000000000000000000000000000000000000000000000000000000000000000463060405160200161155e9594939291906121c6565b60405160208183030381529060405280519060200120905090565b606060ff60001b83146115965761158f836118c2565b9050611623565b8180546115a290611f6c565b80601f01602080910402602001604051908101604052809291908181526020018280546115ce90611f6c565b801561161b5780601f106115f05761010080835404028352916020019161161b565b820191906000526020600020905b8154815290600101906020018083116115fe57829003601f168201915b505050505090505b92915050565b60006040517f190100000000000000000000000000000000000000000000000000000000000081528360028201528260228201526042812091505092915050565b60008060007f7fffffffffffffffffffffffffffffff5d576e7357a4501ddfe92f46681b20a08460001c11156116aa576000600385925092509250611754565b6000600188888888604051600081526020016040526040516116cf9493929190612219565b6020604051602081039080840390855afa1580156116f1573d6000803e3d6000fd5b505050602060405103519050600073ffffffffffffffffffffffffffffffffffffffff168173ffffffffffffffffffffffffffffffffffffffff160361174557600060016000801b93509350935050611754565b8060008060001b935093509350505b9450945094915050565b600060038111156117725761177161225e565b5b8260038111156117855761178461225e565b5b03156118be576001600381111561179f5761179e61225e565b5b8260038111156117b2576117b161225e565b5b036117e9576040517ff645eedf00000000000000000000000000000000000000000000000000000000815260040160405180910390fd5b600260038111156117fd576117fc61225e565b5b8260038111156118105761180f61225e565b5b03611855578060001c6040517ffce698f700000000000000000000000000000000000000000000000000000000815260040161184c9190611b56565b60405180910390fd5b6003808111156118685761186761225e565b5b82600381111561187b5761187a61225e565b5b036118bd57806040517fd78bce0c0000000000000000000000000000000000000000000000000000000081526004016118b49190611c14565b60405180910390fd5b5b5050565b606060006118cf83611936565b90506000602067ffffffffffffffff8111156118ee576118ed6120a2565b5b6040519080825280601f01601f1916602001820160405280156119205781602001600182028036833780820191505090505b5090508181528360208201528092505050919050565b60008060ff8360001c169050601f81111561197d576040517fb3512b0c00000000000000000000000000000000000000000000000000000000815260040160405180910390fd5b80915050919050565b600081519050919050565b600082825260208201905092915050565b60005b838110156119c05780820151818401526020810190506119a5565b60008484015250505050565b6000601f19601f8301169050919050565b60006119e882611986565b6119f28185611991565b9350611a028185602086016119a2565b611a0b816119cc565b840191505092915050565b60006020820190508181036000830152611a3081846119dd565b905092915050565b600080fd5b600073ffffffffffffffffffffffffffffffffffffffff82169050919050565b6000611a6882611a3d565b9050919050565b611a7881611a5d565b8114611a8357600080fd5b50565b600081359050611a9581611a6f565b92915050565b6000819050919050565b611aae81611a9b565b8114611ab957600080fd5b50565b600081359050611acb81611aa5565b92915050565b60008060408385031215611ae857611ae7611a38565b5b6000611af685828601611a86565b9250506020611b0785828601611abc565b9150509250929050565b60008115159050919050565b611b2681611b11565b82525050565b6000602082019050611b416000830184611b1d565b92915050565b611b5081611a9b565b82525050565b6000602082019050611b6b6000830184611b47565b92915050565b600080600060608486031215611b8a57611b89611a38565b5b6000611b9886828701611a86565b9350506020611ba986828701611a86565b9250506040611bba86828701611abc565b9150509250925092565b600060ff82169050919050565b611bda81611bc4565b82525050565b6000602082019050611bf56000830184611bd1565b92915050565b6000819050919050565b611c0e81611bfb565b82525050565b6000602082019050611c296000830184611c05565b92915050565b600060208284031215611c4557611c44611a38565b5b6000611c5384828501611a86565b91505092915050565b60007fff0000000000000000000000000000000000000000000000000000000000000082169050919050565b611c9181611c5c565b82525050565b611ca081611a5d565b82525050565b600081519050919050565b600082825260208201905092915050565b6000819050602082019050919050565b611cdb81611a9b565b82525050565b6000611ced8383611cd2565b60208301905092915050565b6000602082019050919050565b6000611d1182611ca6565b611d1b8185611cb1565b9350611d2683611cc2565b8060005b83811015611d57578151611d3e8882611ce1565b9750611d4983611cf9565b925050600181019050611d2a565b5085935050505092915050565b600060e082019050611d79600083018a611c88565b8181036020830152611d8b81896119dd565b90508181036040830152611d9f81886119dd565b9050611dae6060830187611b47565b611dbb6080830186611c97565b611dc860a0830185611c05565b81810360c0830152611dda8184611d06565b905098975050505050505050565b6000602082019050611dfd6000830184611c97565b92915050565b611e0c81611bc4565b8114611e1757600080fd5b50565b600081359050611e2981611e03565b92915050565b611e3881611bfb565b8114611e4357600080fd5b50565b600081359050611e5581611e2f565b92915050565b600080600080600080600060e0888a031215611e7a57611e79611a38565b5b6000611e888a828b01611a86565b9750506020611e998a828b01611a86565b9650506040611eaa8a828b01611abc565b9550506060611ebb8a828b01611abc565b9450506080611ecc8a828b01611e1a565b93505060a0611edd8a828b01611e46565b92505060c0611eee8a828b01611e46565b91505092959891949750929550565b60008060408385031215611f1457611f13611a38565b5b6000611f2285828601611a86565b9250506020611f3385828601611a86565b9150509250929050565b7f4e487b7100000000000000000000000000000000000000000000000000000000600052602260045260246000fd5b60006002820490506001821680611f8457607f821691505b602082108103611f9757611f96611f3d565b5b50919050565b7f4e487b7100000000000000000000000000000000000000000000000000000000600052601160045260246000fd5b6000611fd782611a9b565b9150611fe283611a9b565b9250828202611ff081611a9b565b9150828204841483151761200757612006611f9d565b5b5092915050565b7f4e487b7100000000000000000000000000000000000000000000000000000000600052601260045260246000fd5b600061204882611a9b565b915061205383611a9b565b9250826120635761206261200e565b5b828204905092915050565b600061207982611a9b565b915061208483611a9b565b925082820390508181111561209c5761209b611f9d565b5b92915050565b7f4e487b7100000000000000000000000000000000000000000000000000000000600052604160045260246000fd5b600060c0820190506120e66000830189611c05565b6120f36020830188611c97565b6121006040830187611c97565b61210d6060830186611b47565b61211a6080830185611b47565b61212760a0830184611b47565b979650505050505050565b60006040820190506121476000830185611c97565b6121546020830184611c97565b9392505050565b60006060820190506121706000830186611c97565b61217d6020830185611b47565b61218a6040830184611b47565b949350505050565b600061219d82611a9b565b91506121a883611a9b565b92508282019050808211156121c0576121bf611f9d565b5b92915050565b600060a0820190506121db6000830188611c05565b6121e86020830187611c05565b6121f56040830186611c05565b6122026060830185611b47565b61220f6080830184611c97565b9695505050505050565b600060808201905061222e6000830187611c05565b61223b6020830186611bd1565b6122486040830185611c05565b6122556060830184611c05565b95945050505050565b7f4e487b7100000000000000000000000000000000000000000000000000000000600052602160045260246000fdfea26469706673582212201dd26627ab80155271a3e01f9f9f782077c09bb4a7599dce7144fd50836add1364736f6c634300081b0033",
  "linkReferences": {},
  "deployedLinkReferences": {}
}