{
  "_format": "hh-sol-artifact-1",
  "contractName": "VanERC721",
  "sourceName": "contracts/VanERC721.sol",
  "abi": [
    {
      "inputs": [
        {
          "internalType": "address",
          "name": "initialOwner",
          "type": "address"
        }
      ],
      "stateMutability": "nonpayable",
      "type": "constructor"
    },
    {
      "inputs": [
        {
          "internalType": "address",
          "name": "sender",
          "type": "address"
        },
        {
          "internalType": "uint256",
          "name": "tokenId",
          "type": "uint256"
        },
        {
          "internalType": "address",
          "name": "owner",
          "type": "address"
        }
      ],
      "name": "ERC721IncorrectOwner",
      "type": "error"
    },
    {
      "inputs": [
        {
          "internalType": "address",
          "name": "operator",
          "type": "address"
        },
        {
          "internalType": "uint256",
          "name": "tokenId",
          "type": "uint256"
        }
      ],
      "name": "ERC721InsufficientApproval",
      "type": "error"
    },
    {
      "inputs": [
        {
          "internalType": "address",
          "name": "approver",
          "type": "address"
        }
      ],
      "name": "ERC721InvalidApprover",
      "type": "error"
    },
    {
      "inputs": [
        {
          "internalType": "address",
          "name": "operator",
          "type": "address"
        }
      ],
      "name": "ERC721InvalidOperator",
      "type": "error"
    },
    {
      "inputs": [
        {
          "internalType": "address",
          "name": "owner",
          "type": "address"
        }
      ],
      "name": "ERC721InvalidOwner",
      "type": "error"
    },
    {
      "inputs": [
        {
          "internalType": "address",
          "name": "receiver",
          "type": "address"
        }
      ],
      "name": "ERC721InvalidReceiver",
      "type": "error"
    },
    {
      "inputs": [
        {
          "internalType": "address",
          "name": "sender",
          "type": "address"
        }
      ],
      "name": "ERC721InvalidSender",
      "type": "error"
    },
    {
      "inputs": [
        {
          "internalType": "uint256",
          "name": "tokenId",
          "type": "uint256"
        }
      ],
      "name": "ERC721NonexistentToken",
      "type": "error"
    },
    {
      "inputs": [
        {
          "internalType": "address",
          "name": "owner",
          "type": "address"
        }
      ],
      "name": "OwnableInvalidOwner",
      "type": "error"
    },
    {
      "inputs": [
        {
          "internalType": "address",
          "name": "account",
          "type": "address"
        }
      ],
      "name": "OwnableUnauthorizedAccount",
      "type": "error"
    },
    {
      "anonymous": false,
      "inputs": [
        {
          "indexed": true,
          "internalType": "address",
          "name": "owner",
          "type": "address"
        },
        {
          "indexed": true,
          "internalType": "address",
          "name": "approved",
          "type": "address"
        },
        {
          "indexed": true,
          "internalType": "uint256",
          "name": "tokenId",
          "type": "uint256"
        }
      ],
      "name": "Approval",
      "type": "event"
    },
    {
      "anonymous": false,
      "inputs": [
        {
          "indexed": true,
          "internalType": "address",
          "name": "owner",
          "type": "address"
        },
        {
          "indexed": true,
          "internalType": "address",
          "name": "operator",
          "type": "address"
        },
        {
          "indexed": false,
          "internalType": "bool",
          "name": "approved",
          "type": "bool"
        }
      ],
      "name": "ApprovalForAll",
      "type": "event"
    },
    {
      "anonymous": false,
      "inputs": [
        {
          "indexed": false,
          "internalType": "uint256",
          "name": "_fromTokenId",
          "type": "uint256"
        },
        {
          "indexed": false,
          "internalType": "uint256",
          "name": "_toTokenId",
          "type": "uint256"
        }
      ],
      "name": "BatchMetadataUpdate",
      "type": "event"
    },
    {
      "anonymous": false,
      "inputs": [
        {
          "indexed": false,
          "internalType": "uint256",
          "name": "_tokenId",
          "type": "uint256"
        }
      ],
      "name": "MetadataUpdate",
      "type": "event"
    },
    {
      "anonymous": false,
      "inputs": [
        {
          "indexed": true,
          "internalType": "address",
          "name": "previousOwner",
          "type": "address"
        },
        {
          "indexed": true,
          "internalType": "address",
          "name": "newOwner",
          "type": "address"
        }
      ],
      "name": "OwnershipTransferred",
      "type": "event"
    },
    {
      "anonymous": false,
      "inputs": [
        {
          "indexed": true,
          "internalType": "address",
          "name": "from",
          "type": "address"
        },
        {
          "indexed": true,
          "internalType": "address",
          "name": "to",
          "type": "address"
        },
        {
          "indexed": true,
          "internalType": "uint256",
          "name": "tokenId",
          "type": "uint256"
        }
      ],
      "name": "Transfer",
      "type": "event"
    },
    {
      "inputs": [
        {
          "internalType": "address",
          "name": "to",
          "type": "address"
        },
        {
          "internalType": "uint256",
          "name": "tokenId",
          "type": "uint256"
        }
      ],
      "name": "approve",
      "outputs": [],
      "stateMutability": "nonpayable",
      "type": "function"
    },
    {
      "inputs": [
        {
          "internalType": "address",
          "name": "owner",
          "type": "address"
        }
      ],
      "name": "balanceOf",
      "outputs": [
        {
          "internalType": "uint256",
          "name": "",
          "type": "uint256"
        }
      ],
      "stateMutability": "view",
      "type": "function"
    },
    {
      "inputs": [],
      "name": "buy",
      "outputs": [],
      "stateMutability": "payable",
      "type": "function"
    },
    {
      "inputs": [
        {
          "internalType": "uint256",
          "name": "tokenId",
          "type": "uint256"
        }
      ],
      "name": "getApproved",
      "outputs": [
        {
          "internalType": "address",
          "name": "",
          "type": "address"
        }
      ],
      "stateMutability": "view",
      "type": "function"
    },
    {
      "inputs": [
        {
          "internalType": "address",
          "name": "owner",
          "type": "address"
        },
        {
          "internalType": "address",
          "name": "operator",
          "type": "address"
        }
      ],
      "name": "isApprovedForAll",
      "outputs": [
        {
          "internalType": "bool",
          "name": "",
          "type": "bool"
        }
      ],
      "stateMutability": "view",
      "type": "function"
    },
    {
      "inputs": [],
      "name": "name",
      "outputs": [
        {
          "internalType": "string",
          "name": "",
          "type": "string"
        }
      ],
      "stateMutability": "view",
      "type": "function"
    },
    {
      "inputs": [],
      "name": "owner",
      "outputs": [
        {
          "internalType": "address",
          "name": "",
          "type": "address"
        }
      ],
      "stateMutability": "view",
      "type": "function"
    },
    {
      "inputs": [
        {
          "internalType": "uint256",
          "name": "tokenId",
          "type": "uint256"
        }
      ],
      "name": "ownerOf",
      "outputs": [
        {
          "internalType": "address",
          "name": "",
          "type": "address"
        }
      ],
      "stateMutability": "view",
      "type": "function"
    },
    {
      "inputs": [],
      "name": "renounceOwnership",
      "outputs": [],
      "stateMutability": "nonpayable",
      "type": "function"
    },
    {
      "inputs": [
        {
          "internalType": "address",
          "name": "to",
          "type": "address"
        },
        {
          "internalType": "uint256",
          "name": "tokenId",
          "type": "uint256"
        }
      ],
      "name": "safeMint",
      "outputs": [],
      "stateMutability": "nonpayable",
      "type": "function"
    },
    {
      "inputs": [
        {
          "internalType": "address",
          "name": "from",
          "type": "address"
        },
        {
          "internalType": "address",
          "name": "to",
          "type": "address"
        },
        {
          "internalType": "uint256",
          "name": "tokenId",
          "type": "uint256"
        }
      ],
      "name": "safeTransferFrom",
      "outputs": [],
      "stateMutability": "nonpayable",
      "type": "function"
    },
    {
      "inputs": [
        {
          "internalType": "address",
          "name": "from",
          "type": "address"
        },
        {
          "internalType": "address",
          "name": "to",
          "type": "address"
        },
        {
          "internalType": "uint256",
          "name": "tokenId",
          "type": "uint256"
        },
        {
          "internalType": "bytes",
          "name": "data",
          "type": "bytes"
        }
      ],
      "name": "safeTransferFrom",
      "outputs": [],
      "stateMutability": "nonpayable",
      "type": "function"
    },
    {
      "inputs": [
        {
          "internalType": "address",
          "name": "operator",
          "type": "address"
        },
        {
          "internalType": "bool",
          "name": "approved",
          "type": "bool"
        }
      ],
      "name": "setApprovalForAll",
      "outputs": [],
      "stateMutability": "nonpayable",
      "type": "function"
    },
    {
      "inputs": [
        {
          "internalType": "bytes4",
          "name": "interfaceId",
          "type": "bytes4"
        }
      ],
      "name": "supportsInterface",
      "outputs": [
        {
          "internalType": "bool",
          "name": "",
          "type": "bool"
        }
      ],
      "stateMutability": "view",
      "type": "function"
    },
    {
      "inputs": [],
      "name": "symbol",
      "outputs": [
        {
          "internalType": "string",
          "name": "",
          "type": "string"
        }
      ],
      "stateMutability": "view",
      "type": "function"
    },
    {
      "inputs": [
        {
          "internalType": "uint256",
          "name": "tokenId",
          "type": "uint256"
        }
      ],
      "name": "tokenURI",
      "outputs": [
        {
          "internalType": "string",
          "name": "",
          "type": "string"
        }
      ],
      "stateMutability": "view",
      "type": "function"
    },
    {
      "inputs": [
        {
          "internalType": "address",
          "name": "from",
          "type": "address"
        },
        {
          "internalType": "address",
          "name": "to",
          "type": "address"
        },
        {
          "internalType": "uint256",
          "name": "tokenId",
          "type": "uint256"
        }
      ],
      "name": "transferFrom",
      "outputs": [],
      "stateMutability": "nonpayable",
      "type": "function"
    },
    {
      "inputs": [
        {
          "internalType": "address",
          "name": "newOwner",
          "type": "address"
        }
      ],
      "name": "transferOwnership",
      "outputs": [],
      "stateMutability": "nonpayable",
      "type": "function"
    }
  ],
  "bytecode": "0x6080604052600160085534801561001557600080fd5b50604051612ca4380380612ca483398181016040528101906100379190610277565b806040518060400160405280600881526020017f56616e546f6b656e0000000000000000000000000000000000000000000000008152506040518060400160405280600381526020017f56414e000000000000000000000000000000000000000000000000000000000081525081600090816100b391906104f4565b5080600190816100c391906104f4565b505050600073ffffffffffffffffffffffffffffffffffffffff168173ffffffffffffffffffffffffffffffffffffffff16036101385760006040517f1e4fbdf700000000000000000000000000000000000000000000000000000000815260040161012f91906105d5565b60405180910390fd5b6101478161014e60201b60201c565b50506105f0565b6000600760009054906101000a900473ffffffffffffffffffffffffffffffffffffffff16905081600760006101000a81548173ffffffffffffffffffffffffffffffffffffffff021916908373ffffffffffffffffffffffffffffffffffffffff1602179055508173ffffffffffffffffffffffffffffffffffffffff168173ffffffffffffffffffffffffffffffffffffffff167f8be0079c531659141344cd1fd0a4f28419497f9722a3daafe3b4186f6b6457e060405160405180910390a35050565b600080fd5b600073ffffffffffffffffffffffffffffffffffffffff82169050919050565b600061024482610219565b9050919050565b61025481610239565b811461025f57600080fd5b50565b6000815190506102718161024b565b92915050565b60006020828403121561028d5761028c610214565b5b600061029b84828501610262565b91505092915050565b600081519050919050565b7f4e487b7100000000000000000000000000000000000000000000000000000000600052604160045260246000fd5b7f4e487b7100000000000000000000000000000000000000000000000000000000600052602260045260246000fd5b6000600282049050600182168061032557607f821691505b602082108103610338576103376102de565b5b50919050565b60008190508160005260206000209050919050565b60006020601f8301049050919050565b600082821b905092915050565b6000600883026103a07fffffffffffffffffffffffffffffffffffffffffffffffffffffffffffffffff82610363565b6103aa8683610363565b95508019841693508086168417925050509392505050565b6000819050919050565b6000819050919050565b60006103f16103ec6103e7846103c2565b6103cc565b6103c2565b9050919050565b6000819050919050565b61040b836103d6565b61041f610417826103f8565b848454610370565b825550505050565b600090565b610434610427565b61043f818484610402565b505050565b5b818110156104635761045860008261042c565b600181019050610445565b5050565b601f8211156104a8576104798161033e565b61048284610353565b81016020851015610491578190505b6104a561049d85610353565b830182610444565b50505b505050565b600082821c905092915050565b60006104cb600019846008026104ad565b1980831691505092915050565b60006104e483836104ba565b9150826002028217905092915050565b6104fd826102a4565b67ffffffffffffffff811115610516576105156102af565b5b610520825461030d565b61052b828285610467565b600060209050601f83116001811461055e576000841561054c578287015190505b61055685826104d8565b8655506105be565b601f19841661056c8661033e565b60005b828110156105945784890151825560018201915060208501945060208101905061056f565b868310156105b157848901516105ad601f8916826104ba565b8355505b6001600288020188555050505b505050505050565b6105cf81610239565b82525050565b60006020820190506105ea60008301846105c6565b92915050565b6126a5806105ff6000396000f3fe6080604052600436106101095760003560e01c80638da5cb5b11610095578063a6f2ae3a11610064578063a6f2ae3a14610367578063b88d4fde14610371578063c87b56dd1461039a578063e985e9c5146103d7578063f2fde38b1461041457610109565b80638da5cb5b146102bf57806395d89b41146102ea578063a144819414610315578063a22cb4651461033e57610109565b806323b872dd116100dc57806323b872dd146101dc57806342842e0e146102055780636352211e1461022e57806370a082311461026b578063715018a6146102a857610109565b806301ffc9a71461010e57806306fdde031461014b578063081812fc14610176578063095ea7b3146101b3575b600080fd5b34801561011a57600080fd5b5061013560048036038101906101309190611bfa565b61043d565b6040516101429190611c42565b60405180910390f35b34801561015757600080fd5b5061016061044f565b60405161016d9190611ced565b60405180910390f35b34801561018257600080fd5b5061019d60048036038101906101989190611d45565b6104e1565b6040516101aa9190611db3565b60405180910390f35b3480156101bf57600080fd5b506101da60048036038101906101d59190611dfa565b6104fd565b005b3480156101e857600080fd5b5061020360048036038101906101fe9190611e3a565b610513565b005b34801561021157600080fd5b5061022c60048036038101906102279190611e3a565b610615565b005b34801561023a57600080fd5b5061025560048036038101906102509190611d45565b610635565b6040516102629190611db3565b60405180910390f35b34801561027757600080fd5b50610292600480360381019061028d9190611e8d565b610647565b60405161029f9190611ec9565b60405180910390f35b3480156102b457600080fd5b506102bd610701565b005b3480156102cb57600080fd5b506102d4610715565b6040516102e19190611db3565b60405180910390f35b3480156102f657600080fd5b506102ff61073f565b60405161030c9190611ced565b60405180910390f35b34801561032157600080fd5b5061033c60048036038101906103379190611dfa565b6107d1565b005b34801561034a57600080fd5b5061036560048036038101906103609190611f10565b610826565b005b61036f61083c565b005b34801561037d57600080fd5b5061039860048036038101906103939190612085565b610862565b005b3480156103a657600080fd5b506103c160048036038101906103bc9190611d45565b61087f565b6040516103ce9190611ced565b60405180910390f35b3480156103e357600080fd5b506103fe60048036038101906103f99190612108565b610891565b60405161040b9190611c42565b60405180910390f35b34801561042057600080fd5b5061043b60048036038101906104369190611e8d565b610925565b005b6000610448826109ab565b9050919050565b60606000805461045e90612177565b80601f016020809104026020016040519081016040528092919081815260200182805461048a90612177565b80156104d75780601f106104ac576101008083540402835291602001916104d7565b820191906000526020600020905b8154815290600101906020018083116104ba57829003601f168201915b5050505050905090565b60006104ec82610a0c565b506104f682610a94565b9050919050565b61050f828261050a610ad1565b610ad9565b5050565b600073ffffffffffffffffffffffffffffffffffffffff168273ffffffffffffffffffffffffffffffffffffffff16036105855760006040517f64a0ae9200000000000000000000000000000000000000000000000000000000815260040161057c9190611db3565b60405180910390fd5b60006105998383610594610ad1565b610aeb565b90508373ffffffffffffffffffffffffffffffffffffffff168173ffffffffffffffffffffffffffffffffffffffff161461060f578382826040517f64283d7b000000000000000000000000000000000000000000000000000000008152600401610606939291906121a8565b60405180910390fd5b50505050565b61063083838360405180602001604052806000815250610862565b505050565b600061064082610a0c565b9050919050565b60008073ffffffffffffffffffffffffffffffffffffffff168273ffffffffffffffffffffffffffffffffffffffff16036106ba5760006040517f89c62b640000000000000000000000000000000000000000000000000000000081526004016106b19190611db3565b60405180910390fd5b600360008373ffffffffffffffffffffffffffffffffffffffff1673ffffffffffffffffffffffffffffffffffffffff168152602001908152602001600020549050919050565b610709610d05565b6107136000610d8c565b565b6000600760009054906101000a900473ffffffffffffffffffffffffffffffffffffffff16905090565b60606001805461074e90612177565b80601f016020809104026020016040519081016040528092919081815260200182805461077a90612177565b80156107c75780601f1061079c576101008083540402835291602001916107c7565b820191906000526020600020905b8154815290600101906020018083116107aa57829003601f168201915b5050505050905090565b6107d9610d05565b6107e38282610e52565b610822816040518060400160405280601c81526020017f68747470733a2f2f76616e6368656e6b696e2e72752f312e6a736f6e00000000815250610e70565b5050565b610838610831610ad1565b8383610ecc565b5050565b6008600081548092919061084f9061220e565b919050555061086033600854610e52565b565b61086d848484610513565b6108798484848461103b565b50505050565b606061088a826111f2565b9050919050565b6000600560008473ffffffffffffffffffffffffffffffffffffffff1673ffffffffffffffffffffffffffffffffffffffff16815260200190815260200160002060008373ffffffffffffffffffffffffffffffffffffffff1673ffffffffffffffffffffffffffffffffffffffff16815260200190815260200160002060009054906101000a900460ff16905092915050565b61092d610d05565b600073ffffffffffffffffffffffffffffffffffffffff168173ffffffffffffffffffffffffffffffffffffffff160361099f5760006040517f1e4fbdf70000000000000000000000000000000000000000000000000000000081526004016109969190611db3565b60405180910390fd5b6109a881610d8c565b50565b6000634906490660e01b7bffffffffffffffffffffffffffffffffffffffffffffffffffffffff1916827bffffffffffffffffffffffffffffffffffffffffffffffffffffffff19161480610a055750610a0482611305565b5b9050919050565b600080610a18836113e7565b9050600073ffffffffffffffffffffffffffffffffffffffff168173ffffffffffffffffffffffffffffffffffffffff1603610a8b57826040517f7e273289000000000000000000000000000000000000000000000000000000008152600401610a829190611ec9565b60405180910390fd5b80915050919050565b60006004600083815260200190815260200160002060009054906101000a900473ffffffffffffffffffffffffffffffffffffffff169050919050565b600033905090565b610ae68383836001611424565b505050565b600080610af7846113e7565b9050600073ffffffffffffffffffffffffffffffffffffffff168373ffffffffffffffffffffffffffffffffffffffff1614610b3957610b388184866115e9565b5b600073ffffffffffffffffffffffffffffffffffffffff168173ffffffffffffffffffffffffffffffffffffffff1614610bca57610b7b600085600080611424565b6001600360008373ffffffffffffffffffffffffffffffffffffffff1673ffffffffffffffffffffffffffffffffffffffff168152602001908152602001600020600082825403925050819055505b600073ffffffffffffffffffffffffffffffffffffffff168573ffffffffffffffffffffffffffffffffffffffff1614610c4d576001600360008773ffffffffffffffffffffffffffffffffffffffff1673ffffffffffffffffffffffffffffffffffffffff168152602001908152602001600020600082825401925050819055505b846002600086815260200190815260200160002060006101000a81548173ffffffffffffffffffffffffffffffffffffffff021916908373ffffffffffffffffffffffffffffffffffffffff160217905550838573ffffffffffffffffffffffffffffffffffffffff168273ffffffffffffffffffffffffffffffffffffffff167fddf252ad1be2c89b69c2b068fc378daa952ba7f163c4a11628f55a4df523b3ef60405160405180910390a4809150509392505050565b610d0d610ad1565b73ffffffffffffffffffffffffffffffffffffffff16610d2b610715565b73ffffffffffffffffffffffffffffffffffffffff1614610d8a57610d4e610ad1565b6040517f118cdaa7000000000000000000000000000000000000000000000000000000008152600401610d819190611db3565b60405180910390fd5b565b6000600760009054906101000a900473ffffffffffffffffffffffffffffffffffffffff16905081600760006101000a81548173ffffffffffffffffffffffffffffffffffffffff021916908373ffffffffffffffffffffffffffffffffffffffff1602179055508173ffffffffffffffffffffffffffffffffffffffff168173ffffffffffffffffffffffffffffffffffffffff167f8be0079c531659141344cd1fd0a4f28419497f9722a3daafe3b4186f6b6457e060405160405180910390a35050565b610e6c8282604051806020016040528060008152506116ad565b5050565b80600660008481526020019081526020016000209081610e909190612402565b507ff8e1a15aba9398e019f0b49df1a4fde98ee17ae345cb5f6b5e2c27f5033e8ce782604051610ec09190611ec9565b60405180910390a15050565b600073ffffffffffffffffffffffffffffffffffffffff168273ffffffffffffffffffffffffffffffffffffffff1603610f3d57816040517f5b08ba18000000000000000000000000000000000000000000000000000000008152600401610f349190611db3565b60405180910390fd5b80600560008573ffffffffffffffffffffffffffffffffffffffff1673ffffffffffffffffffffffffffffffffffffffff16815260200190815260200160002060008473ffffffffffffffffffffffffffffffffffffffff1673ffffffffffffffffffffffffffffffffffffffff16815260200190815260200160002060006101000a81548160ff0219169083151502179055508173ffffffffffffffffffffffffffffffffffffffff168373ffffffffffffffffffffffffffffffffffffffff167f17307eab39ab6107e8899845ad3d59bd9653f200f220920489ca2b5937696c318360405161102e9190611c42565b60405180910390a3505050565b60008373ffffffffffffffffffffffffffffffffffffffff163b11156111ec578273ffffffffffffffffffffffffffffffffffffffff1663150b7a0261107f610ad1565b8685856040518563ffffffff1660e01b81526004016110a19493929190612529565b6020604051808303816000875af19250505080156110dd57506040513d601f19601f820116820180604052508101906110da919061258a565b60015b611161573d806000811461110d576040519150601f19603f3d011682016040523d82523d6000602084013e611112565b606091505b50600081510361115957836040517f64a0ae920000000000000000000000000000000000000000000000000000000081526004016111509190611db3565b60405180910390fd5b805181602001fd5b63150b7a0260e01b7bffffffffffffffffffffffffffffffffffffffffffffffffffffffff1916817bffffffffffffffffffffffffffffffffffffffffffffffffffffffff1916146111ea57836040517f64a0ae920000000000000000000000000000000000000000000000000000000081526004016111e19190611db3565b60405180910390fd5b505b50505050565b60606111fd82610a0c565b50600060066000848152602001908152602001600020805461121e90612177565b80601f016020809104026020016040519081016040528092919081815260200182805461124a90612177565b80156112975780601f1061126c57610100808354040283529160200191611297565b820191906000526020600020905b81548152906001019060200180831161127a57829003601f168201915b5050505050905060006112a86116c9565b905060008151036112bd578192505050611300565b6000825111156112f25780826040516020016112da9291906125f3565b60405160208183030381529060405292505050611300565b6112fb846116e0565b925050505b919050565b60007f80ac58cd000000000000000000000000000000000000000000000000000000007bffffffffffffffffffffffffffffffffffffffffffffffffffffffff1916827bffffffffffffffffffffffffffffffffffffffffffffffffffffffff191614806113d057507f5b5e139f000000000000000000000000000000000000000000000000000000007bffffffffffffffffffffffffffffffffffffffffffffffffffffffff1916827bffffffffffffffffffffffffffffffffffffffffffffffffffffffff1916145b806113e057506113df82611749565b5b9050919050565b60006002600083815260200190815260200160002060009054906101000a900473ffffffffffffffffffffffffffffffffffffffff169050919050565b808061145d5750600073ffffffffffffffffffffffffffffffffffffffff168273ffffffffffffffffffffffffffffffffffffffff1614155b1561159157600061146d84610a0c565b9050600073ffffffffffffffffffffffffffffffffffffffff168373ffffffffffffffffffffffffffffffffffffffff16141580156114d857508273ffffffffffffffffffffffffffffffffffffffff168173ffffffffffffffffffffffffffffffffffffffff1614155b80156114eb57506114e98184610891565b155b1561152d57826040517fa9fbf51f0000000000000000000000000000000000000000000000000000000081526004016115249190611db3565b60405180910390fd5b811561158f57838573ffffffffffffffffffffffffffffffffffffffff168273ffffffffffffffffffffffffffffffffffffffff167f8c5be1e5ebec7d5bd14f71427d1e84f3dd0314c0f7b2291e5b200ac8c7c3b92560405160405180910390a45b505b836004600085815260200190815260200160002060006101000a81548173ffffffffffffffffffffffffffffffffffffffff021916908373ffffffffffffffffffffffffffffffffffffffff16021790555050505050565b6115f48383836117b3565b6116a857600073ffffffffffffffffffffffffffffffffffffffff168373ffffffffffffffffffffffffffffffffffffffff160361166957806040517f7e2732890000000000000000000000000000000000000000000000000000000081526004016116609190611ec9565b60405180910390fd5b81816040517f177e802f00000000000000000000000000000000000000000000000000000000815260040161169f929190612617565b60405180910390fd5b505050565b6116b78383611874565b6116c4600084848461103b565b505050565b606060405180602001604052806000815250905090565b60606116eb82610a0c565b5060006116f66116c9565b905060008151116117165760405180602001604052806000815250611741565b806117208461196d565b6040516020016117319291906125f3565b6040516020818303038152906040525b915050919050565b60007f01ffc9a7000000000000000000000000000000000000000000000000000000007bffffffffffffffffffffffffffffffffffffffffffffffffffffffff1916827bffffffffffffffffffffffffffffffffffffffffffffffffffffffff1916149050919050565b60008073ffffffffffffffffffffffffffffffffffffffff168373ffffffffffffffffffffffffffffffffffffffff161415801561186b57508273ffffffffffffffffffffffffffffffffffffffff168473ffffffffffffffffffffffffffffffffffffffff16148061182c575061182b8484610891565b5b8061186a57508273ffffffffffffffffffffffffffffffffffffffff1661185283610a94565b73ffffffffffffffffffffffffffffffffffffffff16145b5b90509392505050565b600073ffffffffffffffffffffffffffffffffffffffff168273ffffffffffffffffffffffffffffffffffffffff16036118e65760006040517f64a0ae920000000000000000000000000000000000000000000000000000000081526004016118dd9190611db3565b60405180910390fd5b60006118f483836000610aeb565b9050600073ffffffffffffffffffffffffffffffffffffffff168173ffffffffffffffffffffffffffffffffffffffff16146119685760006040517f73c6ac6e00000000000000000000000000000000000000000000000000000000815260040161195f9190611db3565b60405180910390fd5b505050565b60606000600161197c84611a3b565b01905060008167ffffffffffffffff81111561199b5761199a611f5a565b5b6040519080825280601f01601f1916602001820160405280156119cd5781602001600182028036833780820191505090505b509050600082602001820190505b600115611a30578080600190039150507f3031323334353637383961626364656600000000000000000000000000000000600a86061a8153600a8581611a2457611a23612640565b5b049450600085036119db575b819350505050919050565b600080600090507a184f03e93ff9f4daa797ed6e38ed64bf6a1f0100000000000000008310611a99577a184f03e93ff9f4daa797ed6e38ed64bf6a1f0100000000000000008381611a8f57611a8e612640565b5b0492506040810190505b6d04ee2d6d415b85acef81000000008310611ad6576d04ee2d6d415b85acef81000000008381611acc57611acb612640565b5b0492506020810190505b662386f26fc100008310611b0557662386f26fc100008381611afb57611afa612640565b5b0492506010810190505b6305f5e1008310611b2e576305f5e1008381611b2457611b23612640565b5b0492506008810190505b6127108310611b53576127108381611b4957611b48612640565b5b0492506004810190505b60648310611b765760648381611b6c57611b6b612640565b5b0492506002810190505b600a8310611b85576001810190505b80915050919050565b6000604051905090565b600080fd5b600080fd5b60007fffffffff0000000000000000000000000000000000000000000000000000000082169050919050565b611bd781611ba2565b8114611be257600080fd5b50565b600081359050611bf481611bce565b92915050565b600060208284031215611c1057611c0f611b98565b5b6000611c1e84828501611be5565b91505092915050565b60008115159050919050565b611c3c81611c27565b82525050565b6000602082019050611c576000830184611c33565b92915050565b600081519050919050565b600082825260208201905092915050565b60005b83811015611c97578082015181840152602081019050611c7c565b60008484015250505050565b6000601f19601f8301169050919050565b6000611cbf82611c5d565b611cc98185611c68565b9350611cd9818560208601611c79565b611ce281611ca3565b840191505092915050565b60006020820190508181036000830152611d078184611cb4565b905092915050565b6000819050919050565b611d2281611d0f565b8114611d2d57600080fd5b50565b600081359050611d3f81611d19565b92915050565b600060208284031215611d5b57611d5a611b98565b5b6000611d6984828501611d30565b91505092915050565b600073ffffffffffffffffffffffffffffffffffffffff82169050919050565b6000611d9d82611d72565b9050919050565b611dad81611d92565b82525050565b6000602082019050611dc86000830184611da4565b92915050565b611dd781611d92565b8114611de257600080fd5b50565b600081359050611df481611dce565b92915050565b60008060408385031215611e1157611e10611b98565b5b6000611e1f85828601611de5565b9250506020611e3085828601611d30565b9150509250929050565b600080600060608486031215611e5357611e52611b98565b5b6000611e6186828701611de5565b9350506020611e7286828701611de5565b9250506040611e8386828701611d30565b9150509250925092565b600060208284031215611ea357611ea2611b98565b5b6000611eb184828501611de5565b91505092915050565b611ec381611d0f565b82525050565b6000602082019050611ede6000830184611eba565b92915050565b611eed81611c27565b8114611ef857600080fd5b50565b600081359050611f0a81611ee4565b92915050565b60008060408385031215611f2757611f26611b98565b5b6000611f3585828601611de5565b9250506020611f4685828601611efb565b9150509250929050565b600080fd5b600080fd5b7f4e487b7100000000000000000000000000000000000000000000000000000000600052604160045260246000fd5b611f9282611ca3565b810181811067ffffffffffffffff82111715611fb157611fb0611f5a565b5b80604052505050565b6000611fc4611b8e565b9050611fd08282611f89565b919050565b600067ffffffffffffffff821115611ff057611fef611f5a565b5b611ff982611ca3565b9050602081019050919050565b82818337600083830152505050565b600061202861202384611fd5565b611fba565b90508281526020810184848401111561204457612043611f55565b5b61204f848285612006565b509392505050565b600082601f83011261206c5761206b611f50565b5b813561207c848260208601612015565b91505092915050565b6000806000806080858703121561209f5761209e611b98565b5b60006120ad87828801611de5565b94505060206120be87828801611de5565b93505060406120cf87828801611d30565b925050606085013567ffffffffffffffff8111156120f0576120ef611b9d565b5b6120fc87828801612057565b91505092959194509250565b6000806040838503121561211f5761211e611b98565b5b600061212d85828601611de5565b925050602061213e85828601611de5565b9150509250929050565b7f4e487b7100000000000000000000000000000000000000000000000000000000600052602260045260246000fd5b6000600282049050600182168061218f57607f821691505b6020821081036121a2576121a1612148565b5b50919050565b60006060820190506121bd6000830186611da4565b6121ca6020830185611eba565b6121d76040830184611da4565b949350505050565b7f4e487b7100000000000000000000000000000000000000000000000000000000600052601160045260246000fd5b600061221982611d0f565b91507fffffffffffffffffffffffffffffffffffffffffffffffffffffffffffffffff820361224b5761224a6121df565b5b600182019050919050565b60008190508160005260206000209050919050565b60006020601f8301049050919050565b600082821b905092915050565b6000600883026122b87fffffffffffffffffffffffffffffffffffffffffffffffffffffffffffffffff8261227b565b6122c2868361227b565b95508019841693508086168417925050509392505050565b6000819050919050565b60006122ff6122fa6122f584611d0f565b6122da565b611d0f565b9050919050565b6000819050919050565b612319836122e4565b61232d61232582612306565b848454612288565b825550505050565b600090565b612342612335565b61234d818484612310565b505050565b5b818110156123715761236660008261233a565b600181019050612353565b5050565b601f8211156123b65761238781612256565b6123908461226b565b8101602085101561239f578190505b6123b36123ab8561226b565b830182612352565b50505b505050565b600082821c905092915050565b60006123d9600019846008026123bb565b1980831691505092915050565b60006123f283836123c8565b9150826002028217905092915050565b61240b82611c5d565b67ffffffffffffffff81111561242457612423611f5a565b5b61242e8254612177565b612439828285612375565b600060209050601f83116001811461246c576000841561245a578287015190505b61246485826123e6565b8655506124cc565b601f19841661247a86612256565b60005b828110156124a25784890151825560018201915060208501945060208101905061247d565b868310156124bf57848901516124bb601f8916826123c8565b8355505b6001600288020188555050505b505050505050565b600081519050919050565b600082825260208201905092915050565b60006124fb826124d4565b61250581856124df565b9350612515818560208601611c79565b61251e81611ca3565b840191505092915050565b600060808201905061253e6000830187611da4565b61254b6020830186611da4565b6125586040830185611eba565b818103606083015261256a81846124f0565b905095945050505050565b60008151905061258481611bce565b92915050565b6000602082840312156125a05761259f611b98565b5b60006125ae84828501612575565b91505092915050565b600081905092915050565b60006125cd82611c5d565b6125d781856125b7565b93506125e7818560208601611c79565b80840191505092915050565b60006125ff82856125c2565b915061260b82846125c2565b91508190509392505050565b600060408201905061262c6000830185611da4565b6126396020830184611eba565b9392505050565b7f4e487b7100000000000000000000000000000000000000000000000000000000600052601260045260246000fdfea2646970667358221220926ad36791317b24f0f3eaccb97c449fdab3aed8f60472cae3fd061cf6eeae9964736f6c634300081b0033",
  "linkReferences": {},
  "deployedLinkReferences": {}
}