{
  "_format": "hh-sol-artifact-1",
  "contractName": "VanERC1155",
  "sourceName": "contracts/VanERC1155.sol",
  "abi": [
    {
      "inputs": [
        {
          "internalType": "address",
          "name": "initialOwner",
          "type": "address"
        }
      ],
      "stateMutability": "nonpayable",
      "type": "constructor"
    },
    {
      "inputs": [
        {
          "internalType": "address",
          "name": "sender",
          "type": "address"
        },
        {
          "internalType": "uint256",
          "name": "balance",
          "type": "uint256"
        },
        {
          "internalType": "uint256",
          "name": "needed",
          "type": "uint256"
        },
        {
          "internalType": "uint256",
          "name": "tokenId",
          "type": "uint256"
        }
      ],
      "name": "ERC1155InsufficientBalance",
      "type": "error"
    },
    {
      "inputs": [
        {
          "internalType": "address",
          "name": "approver",
          "type": "address"
        }
      ],
      "name": "ERC1155InvalidApprover",
      "type": "error"
    },
    {
      "inputs": [
        {
          "internalType": "uint256",
          "name": "idsLength",
          "type": "uint256"
        },
        {
          "internalType": "uint256",
          "name": "valuesLength",
          "type": "uint256"
        }
      ],
      "name": "ERC1155InvalidArrayLength",
      "type": "error"
    },
    {
      "inputs": [
        {
          "internalType": "address",
          "name": "operator",
          "type": "address"
        }
      ],
      "name": "ERC1155InvalidOperator",
      "type": "error"
    },
    {
      "inputs": [
        {
          "internalType": "address",
          "name": "receiver",
          "type": "address"
        }
      ],
      "name": "ERC1155InvalidReceiver",
      "type": "error"
    },
    {
      "inputs": [
        {
          "internalType": "address",
          "name": "sender",
          "type": "address"
        }
      ],
      "name": "ERC1155InvalidSender",
      "type": "error"
    },
    {
      "inputs": [
        {
          "internalType": "address",
          "name": "operator",
          "type": "address"
        },
        {
          "internalType": "address",
          "name": "owner",
          "type": "address"
        }
      ],
      "name": "ERC1155MissingApprovalForAll",
      "type": "error"
    },
    {
      "inputs": [
        {
          "internalType": "address",
          "name": "owner",
          "type": "address"
        }
      ],
      "name": "OwnableInvalidOwner",
      "type": "error"
    },
    {
      "inputs": [
        {
          "internalType": "address",
          "name": "account",
          "type": "address"
        }
      ],
      "name": "OwnableUnauthorizedAccount",
      "type": "error"
    },
    {
      "anonymous": false,
      "inputs": [
        {
          "indexed": true,
          "internalType": "address",
          "name": "account",
          "type": "address"
        },
        {
          "indexed": true,
          "internalType": "address",
          "name": "operator",
          "type": "address"
        },
        {
          "indexed": false,
          "internalType": "bool",
          "name": "approved",
          "type": "bool"
        }
      ],
      "name": "ApprovalForAll",
      "type": "event"
    },
    {
      "anonymous": false,
      "inputs": [
        {
          "indexed": true,
          "internalType": "address",
          "name": "previousOwner",
          "type": "address"
        },
        {
          "indexed": true,
          "internalType": "address",
          "name": "newOwner",
          "type": "address"
        }
      ],
      "name": "OwnershipTransferred",
      "type": "event"
    },
    {
      "anonymous": false,
      "inputs": [
        {
          "indexed": true,
          "internalType": "address",
          "name": "operator",
          "type": "address"
        },
        {
          "indexed": true,
          "internalType": "address",
          "name": "from",
          "type": "address"
        },
        {
          "indexed": true,
          "internalType": "address",
          "name": "to",
          "type": "address"
        },
        {
          "indexed": false,
          "internalType": "uint256[]",
          "name": "ids",
          "type": "uint256[]"
        },
        {
          "indexed": false,
          "internalType": "uint256[]",
          "name": "values",
          "type": "uint256[]"
        }
      ],
      "name": "TransferBatch",
      "type": "event"
    },
    {
      "anonymous": false,
      "inputs": [
        {
          "indexed": true,
          "internalType": "address",
          "name": "operator",
          "type": "address"
        },
        {
          "indexed": true,
          "internalType": "address",
          "name": "from",
          "type": "address"
        },
        {
          "indexed": true,
          "internalType": "address",
          "name": "to",
          "type": "address"
        },
        {
          "indexed": false,
          "internalType": "uint256",
          "name": "id",
          "type": "uint256"
        },
        {
          "indexed": false,
          "internalType": "uint256",
          "name": "value",
          "type": "uint256"
        }
      ],
      "name": "TransferSingle",
      "type": "event"
    },
    {
      "anonymous": false,
      "inputs": [
        {
          "indexed": false,
          "internalType": "string",
          "name": "value",
          "type": "string"
        },
        {
          "indexed": true,
          "internalType": "uint256",
          "name": "id",
          "type": "uint256"
        }
      ],
      "name": "URI",
      "type": "event"
    },
    {
      "inputs": [],
      "name": "MAIN_TOKEN_ID",
      "outputs": [
        {
          "internalType": "uint256",
          "name": "",
          "type": "uint256"
        }
      ],
      "stateMutability": "view",
      "type": "function"
    },
    {
      "inputs": [
        {
          "internalType": "address",
          "name": "account",
          "type": "address"
        },
        {
          "internalType": "uint256",
          "name": "id",
          "type": "uint256"
        }
      ],
      "name": "balanceOf",
      "outputs": [
        {
          "internalType": "uint256",
          "name": "",
          "type": "uint256"
        }
      ],
      "stateMutability": "view",
      "type": "function"
    },
    {
      "inputs": [
        {
          "internalType": "address[]",
          "name": "accounts",
          "type": "address[]"
        },
        {
          "internalType": "uint256[]",
          "name": "ids",
          "type": "uint256[]"
        }
      ],
      "name": "balanceOfBatch",
      "outputs": [
        {
          "internalType": "uint256[]",
          "name": "",
          "type": "uint256[]"
        }
      ],
      "stateMutability": "view",
      "type": "function"
    },
    {
      "inputs": [],
      "name": "buy",
      "outputs": [],
      "stateMutability": "payable",
      "type": "function"
    },
    {
      "inputs": [
        {
          "internalType": "address",
          "name": "account",
          "type": "address"
        },
        {
          "internalType": "address",
          "name": "operator",
          "type": "address"
        }
      ],
      "name": "isApprovedForAll",
      "outputs": [
        {
          "internalType": "bool",
          "name": "",
          "type": "bool"
        }
      ],
      "stateMutability": "view",
      "type": "function"
    },
    {
      "inputs": [
        {
          "internalType": "address",
          "name": "account",
          "type": "address"
        },
        {
          "internalType": "uint256",
          "name": "id",
          "type": "uint256"
        },
        {
          "internalType": "uint256",
          "name": "amount",
          "type": "uint256"
        },
        {
          "internalType": "bytes",
          "name": "data",
          "type": "bytes"
        }
      ],
      "name": "mint",
      "outputs": [],
      "stateMutability": "nonpayable",
      "type": "function"
    },
    {
      "inputs": [],
      "name": "owner",
      "outputs": [
        {
          "internalType": "address",
          "name": "",
          "type": "address"
        }
      ],
      "stateMutability": "view",
      "type": "function"
    },
    {
      "inputs": [],
      "name": "renounceOwnership",
      "outputs": [],
      "stateMutability": "nonpayable",
      "type": "function"
    },
    {
      "inputs": [
        {
          "internalType": "address",
          "name": "from",
          "type": "address"
        },
        {
          "internalType": "address",
          "name": "to",
          "type": "address"
        },
        {
          "internalType": "uint256[]",
          "name": "ids",
          "type": "uint256[]"
        },
        {
          "internalType": "uint256[]",
          "name": "values",
          "type": "uint256[]"
        },
        {
          "internalType": "bytes",
          "name": "data",
          "type": "bytes"
        }
      ],
      "name": "safeBatchTransferFrom",
      "outputs": [],
      "stateMutability": "nonpayable",
      "type": "function"
    },
    {
      "inputs": [
        {
          "internalType": "address",
          "name": "from",
          "type": "address"
        },
        {
          "internalType": "address",
          "name": "to",
          "type": "address"
        },
        {
          "internalType": "uint256",
          "name": "id",
          "type": "uint256"
        },
        {
          "internalType": "uint256",
          "name": "value",
          "type": "uint256"
        },
        {
          "internalType": "bytes",
          "name": "data",
          "type": "bytes"
        }
      ],
      "name": "safeTransferFrom",
      "outputs": [],
      "stateMutability": "nonpayable",
      "type": "function"
    },
    {
      "inputs": [
        {
          "internalType": "address",
          "name": "operator",
          "type": "address"
        },
        {
          "internalType": "bool",
          "name": "approved",
          "type": "bool"
        }
      ],
      "name": "setApprovalForAll",
      "outputs": [],
      "stateMutability": "nonpayable",
      "type": "function"
    },
    {
      "inputs": [
        {
          "internalType": "bytes4",
          "name": "interfaceId",
          "type": "bytes4"
        }
      ],
      "name": "supportsInterface",
      "outputs": [
        {
          "internalType": "bool",
          "name": "",
          "type": "bool"
        }
      ],
      "stateMutability": "view",
      "type": "function"
    },
    {
      "inputs": [
        {
          "internalType": "address",
          "name": "newOwner",
          "type": "address"
        }
      ],
      "name": "transferOwnership",
      "outputs": [],
      "stateMutability": "nonpayable",
      "type": "function"
    },
    {
      "inputs": [
        {
          "internalType": "uint256",
          "name": "",
          "type": "uint256"
        }
      ],
      "name": "uri",
      "outputs": [
        {
          "internalType": "string",
          "name": "",
          "type": "string"
        }
      ],
      "stateMutability": "view",
      "type": "function"
    }
  ],
  "bytecode": "0x608060405234801561001057600080fd5b506040516129d93803806129d98339818101604052810190610032919061023d565b806040518060400160405280601c81526020017f68747470733a2f2f76616e6368656e6b696e2e72752f312e6a736f6e000000008152506100788161010160201b60201c565b50600073ffffffffffffffffffffffffffffffffffffffff168173ffffffffffffffffffffffffffffffffffffffff16036100eb5760006040517f1e4fbdf70000000000000000000000000000000000000000000000000000000081526004016100e29190610279565b60405180910390fd5b6100fa8161011460201b60201c565b50506105b6565b806002908161011091906104e4565b5050565b6000600360009054906101000a900473ffffffffffffffffffffffffffffffffffffffff16905081600360006101000a81548173ffffffffffffffffffffffffffffffffffffffff021916908373ffffffffffffffffffffffffffffffffffffffff1602179055508173ffffffffffffffffffffffffffffffffffffffff168173ffffffffffffffffffffffffffffffffffffffff167f8be0079c531659141344cd1fd0a4f28419497f9722a3daafe3b4186f6b6457e060405160405180910390a35050565b600080fd5b600073ffffffffffffffffffffffffffffffffffffffff82169050919050565b600061020a826101df565b9050919050565b61021a816101ff565b811461022557600080fd5b50565b60008151905061023781610211565b92915050565b600060208284031215610253576102526101da565b5b600061026184828501610228565b91505092915050565b610273816101ff565b82525050565b600060208201905061028e600083018461026a565b92915050565b600081519050919050565b7f4e487b7100000000000000000000000000000000000000000000000000000000600052604160045260246000fd5b7f4e487b7100000000000000000000000000000000000000000000000000000000600052602260045260246000fd5b6000600282049050600182168061031557607f821691505b602082108103610328576103276102ce565b5b50919050565b60008190508160005260206000209050919050565b60006020601f8301049050919050565b600082821b905092915050565b6000600883026103907fffffffffffffffffffffffffffffffffffffffffffffffffffffffffffffffff82610353565b61039a8683610353565b95508019841693508086168417925050509392505050565b6000819050919050565b6000819050919050565b60006103e16103dc6103d7846103b2565b6103bc565b6103b2565b9050919050565b6000819050919050565b6103fb836103c6565b61040f610407826103e8565b848454610360565b825550505050565b600090565b610424610417565b61042f8184846103f2565b505050565b5b818110156104535761044860008261041c565b600181019050610435565b5050565b601f821115610498576104698161032e565b61047284610343565b81016020851015610481578190505b61049561048d85610343565b830182610434565b50505b505050565b600082821c905092915050565b60006104bb6000198460080261049d565b1980831691505092915050565b60006104d483836104aa565b9150826002028217905092915050565b6104ed82610294565b67ffffffffffffffff8111156105065761050561029f565b5b61051082546102fd565b61051b828285610457565b600060209050601f83116001811461054e576000841561053c578287015190505b61054685826104c8565b8655506105ae565b601f19841661055c8661032e565b60005b828110156105845784890151825560018201915060208501945060208101905061055f565b868310156105a1578489015161059d601f8916826104aa565b8355505b6001600288020188555050505b505050505050565b612414806105c56000396000f3fe6080604052600436106100dc5760003560e01c80638da5cb5b1161007f578063bbc898c911610059578063bbc898c91461029c578063e985e9c5146102c7578063f242432a14610304578063f2fde38b1461032d576100dc565b80638da5cb5b1461023e578063a22cb46514610269578063a6f2ae3a14610292576100dc565b80632eb2c2d6116100bb5780632eb2c2d6146101985780634e1273f4146101c1578063715018a6146101fe578063731133e914610215576100dc565b8062fdd58e146100e157806301ffc9a71461011e5780630e89341c1461015b575b600080fd5b3480156100ed57600080fd5b50610108600480360381019061010391906117bd565b610356565b604051610115919061180c565b60405180910390f35b34801561012a57600080fd5b506101456004803603810190610140919061187f565b6103b0565b60405161015291906118c7565b60405180910390f35b34801561016757600080fd5b50610182600480360381019061017d91906118e2565b610492565b60405161018f919061199f565b60405180910390f35b3480156101a457600080fd5b506101bf60048036038101906101ba9190611bbe565b610526565b005b3480156101cd57600080fd5b506101e860048036038101906101e39190611d50565b6105ce565b6040516101f59190611e86565b60405180910390f35b34801561020a57600080fd5b506102136106d7565b005b34801561022157600080fd5b5061023c60048036038101906102379190611ea8565b6106eb565b005b34801561024a57600080fd5b50610253610705565b6040516102609190611f3a565b60405180910390f35b34801561027557600080fd5b50610290600480360381019061028b9190611f81565b61072f565b005b61029a610745565b005b3480156102a857600080fd5b506102b1610769565b6040516102be919061180c565b60405180910390f35b3480156102d357600080fd5b506102ee60048036038101906102e99190611fc1565b61076e565b6040516102fb91906118c7565b60405180910390f35b34801561031057600080fd5b5061032b60048036038101906103269190612001565b610802565b005b34801561033957600080fd5b50610354600480360381019061034f9190612098565b6108aa565b005b600080600083815260200190815260200160002060008473ffffffffffffffffffffffffffffffffffffffff1673ffffffffffffffffffffffffffffffffffffffff16815260200190815260200160002054905092915050565b60007fd9b67a26000000000000000000000000000000000000000000000000000000007bffffffffffffffffffffffffffffffffffffffffffffffffffffffff1916827bffffffffffffffffffffffffffffffffffffffffffffffffffffffff1916148061047b57507f0e89341c000000000000000000000000000000000000000000000000000000007bffffffffffffffffffffffffffffffffffffffffffffffffffffffff1916827bffffffffffffffffffffffffffffffffffffffffffffffffffffffff1916145b8061048b575061048a82610930565b5b9050919050565b6060600280546104a1906120f4565b80601f01602080910402602001604051908101604052809291908181526020018280546104cd906120f4565b801561051a5780601f106104ef5761010080835404028352916020019161051a565b820191906000526020600020905b8154815290600101906020018083116104fd57829003601f168201915b50505050509050919050565b600061053061099a565b90508073ffffffffffffffffffffffffffffffffffffffff168673ffffffffffffffffffffffffffffffffffffffff16141580156105755750610573868261076e565b155b156105b95780866040517fe237d9220000000000000000000000000000000000000000000000000000000081526004016105b0929190612125565b60405180910390fd5b6105c686868686866109a2565b505050505050565b6060815183511461061a57815183516040517f5b05999100000000000000000000000000000000000000000000000000000000815260040161061192919061214e565b60405180910390fd5b6000835167ffffffffffffffff811115610637576106366119c6565b5b6040519080825280602002602001820160405280156106655781602001602082028036833780820191505090505b50905060005b84518110156106cc576106a261068a8287610a9a90919063ffffffff16565b61069d8387610aae90919063ffffffff16565b610356565b8282815181106106b5576106b4612177565b5b60200260200101818152505080600101905061066b565b508091505092915050565b6106df610ac2565b6106e96000610b49565b565b6106f3610ac2565b6106ff84848484610c0f565b50505050565b6000600360009054906101000a900473ffffffffffffffffffffffffffffffffffffffff16905090565b61074161073a61099a565b8383610ca8565b5050565b60003490506107663360008360405180602001604052806000815250610c0f565b50565b600081565b6000600160008473ffffffffffffffffffffffffffffffffffffffff1673ffffffffffffffffffffffffffffffffffffffff16815260200190815260200160002060008373ffffffffffffffffffffffffffffffffffffffff1673ffffffffffffffffffffffffffffffffffffffff16815260200190815260200160002060009054906101000a900460ff16905092915050565b600061080c61099a565b90508073ffffffffffffffffffffffffffffffffffffffff168673ffffffffffffffffffffffffffffffffffffffff1614158015610851575061084f868261076e565b155b156108955780866040517fe237d92200000000000000000000000000000000000000000000000000000000815260040161088c929190612125565b60405180910390fd5b6108a28686868686610e18565b505050505050565b6108b2610ac2565b600073ffffffffffffffffffffffffffffffffffffffff168173ffffffffffffffffffffffffffffffffffffffff16036109245760006040517f1e4fbdf700000000000000000000000000000000000000000000000000000000815260040161091b9190611f3a565b60405180910390fd5b61092d81610b49565b50565b60007f01ffc9a7000000000000000000000000000000000000000000000000000000007bffffffffffffffffffffffffffffffffffffffffffffffffffffffff1916827bffffffffffffffffffffffffffffffffffffffffffffffffffffffff1916149050919050565b600033905090565b600073ffffffffffffffffffffffffffffffffffffffff168473ffffffffffffffffffffffffffffffffffffffff1603610a145760006040517f57f447ce000000000000000000000000000000000000000000000000000000008152600401610a0b9190611f3a565b60405180910390fd5b600073ffffffffffffffffffffffffffffffffffffffff168573ffffffffffffffffffffffffffffffffffffffff1603610a865760006040517f01a83514000000000000000000000000000000000000000000000000000000008152600401610a7d9190611f3a565b60405180910390fd5b610a938585858585610f23565b5050505050565b600060208202602084010151905092915050565b600060208202602084010151905092915050565b610aca61099a565b73ffffffffffffffffffffffffffffffffffffffff16610ae8610705565b73ffffffffffffffffffffffffffffffffffffffff1614610b4757610b0b61099a565b6040517f118cdaa7000000000000000000000000000000000000000000000000000000008152600401610b3e9190611f3a565b60405180910390fd5b565b6000600360009054906101000a900473ffffffffffffffffffffffffffffffffffffffff16905081600360006101000a81548173ffffffffffffffffffffffffffffffffffffffff021916908373ffffffffffffffffffffffffffffffffffffffff1602179055508173ffffffffffffffffffffffffffffffffffffffff168173ffffffffffffffffffffffffffffffffffffffff167f8be0079c531659141344cd1fd0a4f28419497f9722a3daafe3b4186f6b6457e060405160405180910390a35050565b600073ffffffffffffffffffffffffffffffffffffffff168473ffffffffffffffffffffffffffffffffffffffff1603610c815760006040517f57f447ce000000000000000000000000000000000000000000000000000000008152600401610c789190611f3a565b60405180910390fd5b600080610c8e8585610fd5565b91509150610ca0600087848487610f23565b505050505050565b600073ffffffffffffffffffffffffffffffffffffffff168273ffffffffffffffffffffffffffffffffffffffff1603610d1a5760006040517fced3e100000000000000000000000000000000000000000000000000000000008152600401610d119190611f3a565b60405180910390fd5b80600160008573ffffffffffffffffffffffffffffffffffffffff1673ffffffffffffffffffffffffffffffffffffffff16815260200190815260200160002060008473ffffffffffffffffffffffffffffffffffffffff1673ffffffffffffffffffffffffffffffffffffffff16815260200190815260200160002060006101000a81548160ff0219169083151502179055508173ffffffffffffffffffffffffffffffffffffffff168373ffffffffffffffffffffffffffffffffffffffff167f17307eab39ab6107e8899845ad3d59bd9653f200f220920489ca2b5937696c3183604051610e0b91906118c7565b60405180910390a3505050565b600073ffffffffffffffffffffffffffffffffffffffff168473ffffffffffffffffffffffffffffffffffffffff1603610e8a5760006040517f57f447ce000000000000000000000000000000000000000000000000000000008152600401610e819190611f3a565b60405180910390fd5b600073ffffffffffffffffffffffffffffffffffffffff168573ffffffffffffffffffffffffffffffffffffffff1603610efc5760006040517f01a83514000000000000000000000000000000000000000000000000000000008152600401610ef39190611f3a565b60405180910390fd5b600080610f098585610fd5565b91509150610f1a8787848487610f23565b50505050505050565b610f2f85858585611005565b600073ffffffffffffffffffffffffffffffffffffffff168473ffffffffffffffffffffffffffffffffffffffff1614610fce576000610f6d61099a565b90506001845103610fbd576000610f8e600086610aae90919063ffffffff16565b90506000610fa6600086610aae90919063ffffffff16565b9050610fb68389898585896113ad565b5050610fcc565b610fcb818787878787611561565b5b505b5050505050565b60608060405191506001825283602083015260408201905060018152826020820152604081016040529250929050565b805182511461104f57815181516040517f5b05999100000000000000000000000000000000000000000000000000000000815260040161104692919061214e565b60405180910390fd5b600061105961099a565b905060005b835181101561126857600061107c8286610aae90919063ffffffff16565b905060006110938386610aae90919063ffffffff16565b9050600073ffffffffffffffffffffffffffffffffffffffff168873ffffffffffffffffffffffffffffffffffffffff16146111c057600080600084815260200190815260200160002060008a73ffffffffffffffffffffffffffffffffffffffff1673ffffffffffffffffffffffffffffffffffffffff1681526020019081526020016000205490508181101561116857888183856040517f03dee4c500000000000000000000000000000000000000000000000000000000815260040161115f94939291906121a6565b60405180910390fd5b81810360008085815260200190815260200160002060008b73ffffffffffffffffffffffffffffffffffffffff1673ffffffffffffffffffffffffffffffffffffffff16815260200190815260200160002081905550505b600073ffffffffffffffffffffffffffffffffffffffff168773ffffffffffffffffffffffffffffffffffffffff161461125b578060008084815260200190815260200160002060008973ffffffffffffffffffffffffffffffffffffffff1673ffffffffffffffffffffffffffffffffffffffff1681526020019081526020016000206000828254611253919061221a565b925050819055505b505080600101905061105e565b506001835103611327576000611288600085610aae90919063ffffffff16565b905060006112a0600085610aae90919063ffffffff16565b90508573ffffffffffffffffffffffffffffffffffffffff168773ffffffffffffffffffffffffffffffffffffffff168473ffffffffffffffffffffffffffffffffffffffff167fc3d58168c5ae7397731d063d5bbf3d657854427343f4c083240f7aacaa2d0f62858560405161131892919061214e565b60405180910390a450506113a6565b8373ffffffffffffffffffffffffffffffffffffffff168573ffffffffffffffffffffffffffffffffffffffff168273ffffffffffffffffffffffffffffffffffffffff167f4a39dc06d4c0dbc64b70af90fd698a233a518aa5d07e595d983b8c0526c8f7fb868660405161139d92919061224e565b60405180910390a45b5050505050565b60008473ffffffffffffffffffffffffffffffffffffffff163b1115611559578373ffffffffffffffffffffffffffffffffffffffff1663f23a6e6187878686866040518663ffffffff1660e01b815260040161140e9594939291906122da565b6020604051808303816000875af192505050801561144a57506040513d601f19601f820116820180604052508101906114479190612349565b60015b6114ce573d806000811461147a576040519150601f19603f3d011682016040523d82523d6000602084013e61147f565b606091505b5060008151036114c657846040517f57f447ce0000000000000000000000000000000000000000000000000000000081526004016114bd9190611f3a565b60405180910390fd5b805181602001fd5b63f23a6e6160e01b7bffffffffffffffffffffffffffffffffffffffffffffffffffffffff1916817bffffffffffffffffffffffffffffffffffffffffffffffffffffffff19161461155757846040517f57f447ce00000000000000000000000000000000000000000000000000000000815260040161154e9190611f3a565b60405180910390fd5b505b505050505050565b60008473ffffffffffffffffffffffffffffffffffffffff163b111561170d578373ffffffffffffffffffffffffffffffffffffffff1663bc197c8187878686866040518663ffffffff1660e01b81526004016115c2959493929190612376565b6020604051808303816000875af19250505080156115fe57506040513d601f19601f820116820180604052508101906115fb9190612349565b60015b611682573d806000811461162e576040519150601f19603f3d011682016040523d82523d6000602084013e611633565b606091505b50600081510361167a57846040517f57f447ce0000000000000000000000000000000000000000000000000000000081526004016116719190611f3a565b60405180910390fd5b805181602001fd5b63bc197c8160e01b7bffffffffffffffffffffffffffffffffffffffffffffffffffffffff1916817bffffffffffffffffffffffffffffffffffffffffffffffffffffffff19161461170b57846040517f57f447ce0000000000000000000000000000000000000000000000000000000081526004016117029190611f3a565b60405180910390fd5b505b505050505050565b6000604051905090565b600080fd5b600080fd5b600073ffffffffffffffffffffffffffffffffffffffff82169050919050565b600061175482611729565b9050919050565b61176481611749565b811461176f57600080fd5b50565b6000813590506117818161175b565b92915050565b6000819050919050565b61179a81611787565b81146117a557600080fd5b50565b6000813590506117b781611791565b92915050565b600080604083850312156117d4576117d361171f565b5b60006117e285828601611772565b92505060206117f3858286016117a8565b9150509250929050565b61180681611787565b82525050565b600060208201905061182160008301846117fd565b92915050565b60007fffffffff0000000000000000000000000000000000000000000000000000000082169050919050565b61185c81611827565b811461186757600080fd5b50565b60008135905061187981611853565b92915050565b6000602082840312156118955761189461171f565b5b60006118a38482850161186a565b91505092915050565b60008115159050919050565b6118c1816118ac565b82525050565b60006020820190506118dc60008301846118b8565b92915050565b6000602082840312156118f8576118f761171f565b5b6000611906848285016117a8565b91505092915050565b600081519050919050565b600082825260208201905092915050565b60005b8381101561194957808201518184015260208101905061192e565b60008484015250505050565b6000601f19601f8301169050919050565b60006119718261190f565b61197b818561191a565b935061198b81856020860161192b565b61199481611955565b840191505092915050565b600060208201905081810360008301526119b98184611966565b905092915050565b600080fd5b7f4e487b7100000000000000000000000000000000000000000000000000000000600052604160045260246000fd5b6119fe82611955565b810181811067ffffffffffffffff82111715611a1d57611a1c6119c6565b5b80604052505050565b6000611a30611715565b9050611a3c82826119f5565b919050565b600067ffffffffffffffff821115611a5c57611a5b6119c6565b5b602082029050602081019050919050565b600080fd5b6000611a85611a8084611a41565b611a26565b90508083825260208201905060208402830185811115611aa857611aa7611a6d565b5b835b81811015611ad15780611abd88826117a8565b845260208401935050602081019050611aaa565b5050509392505050565b600082601f830112611af057611aef6119c1565b5b8135611b00848260208601611a72565b91505092915050565b600080fd5b600067ffffffffffffffff821115611b2957611b286119c6565b5b611b3282611955565b9050602081019050919050565b82818337600083830152505050565b6000611b61611b5c84611b0e565b611a26565b905082815260208101848484011115611b7d57611b7c611b09565b5b611b88848285611b3f565b509392505050565b600082601f830112611ba557611ba46119c1565b5b8135611bb5848260208601611b4e565b91505092915050565b600080600080600060a08688031215611bda57611bd961171f565b5b6000611be888828901611772565b9550506020611bf988828901611772565b945050604086013567ffffffffffffffff811115611c1a57611c19611724565b5b611c2688828901611adb565b935050606086013567ffffffffffffffff811115611c4757611c46611724565b5b611c5388828901611adb565b925050608086013567ffffffffffffffff811115611c7457611c73611724565b5b611c8088828901611b90565b9150509295509295909350565b600067ffffffffffffffff821115611ca857611ca76119c6565b5b602082029050602081019050919050565b6000611ccc611cc784611c8d565b611a26565b90508083825260208201905060208402830185811115611cef57611cee611a6d565b5b835b81811015611d185780611d048882611772565b845260208401935050602081019050611cf1565b5050509392505050565b600082601f830112611d3757611d366119c1565b5b8135611d47848260208601611cb9565b91505092915050565b60008060408385031215611d6757611d6661171f565b5b600083013567ffffffffffffffff811115611d8557611d84611724565b5b611d9185828601611d22565b925050602083013567ffffffffffffffff811115611db257611db1611724565b5b611dbe85828601611adb565b9150509250929050565b600081519050919050565b600082825260208201905092915050565b6000819050602082019050919050565b611dfd81611787565b82525050565b6000611e0f8383611df4565b60208301905092915050565b6000602082019050919050565b6000611e3382611dc8565b611e3d8185611dd3565b9350611e4883611de4565b8060005b83811015611e79578151611e608882611e03565b9750611e6b83611e1b565b925050600181019050611e4c565b5085935050505092915050565b60006020820190508181036000830152611ea08184611e28565b905092915050565b60008060008060808587031215611ec257611ec161171f565b5b6000611ed087828801611772565b9450506020611ee1878288016117a8565b9350506040611ef2878288016117a8565b925050606085013567ffffffffffffffff811115611f1357611f12611724565b5b611f1f87828801611b90565b91505092959194509250565b611f3481611749565b82525050565b6000602082019050611f4f6000830184611f2b565b92915050565b611f5e816118ac565b8114611f6957600080fd5b50565b600081359050611f7b81611f55565b92915050565b60008060408385031215611f9857611f9761171f565b5b6000611fa685828601611772565b9250506020611fb785828601611f6c565b9150509250929050565b60008060408385031215611fd857611fd761171f565b5b6000611fe685828601611772565b9250506020611ff785828601611772565b9150509250929050565b600080600080600060a0868803121561201d5761201c61171f565b5b600061202b88828901611772565b955050602061203c88828901611772565b945050604061204d888289016117a8565b935050606061205e888289016117a8565b925050608086013567ffffffffffffffff81111561207f5761207e611724565b5b61208b88828901611b90565b9150509295509295909350565b6000602082840312156120ae576120ad61171f565b5b60006120bc84828501611772565b91505092915050565b7f4e487b7100000000000000000000000000000000000000000000000000000000600052602260045260246000fd5b6000600282049050600182168061210c57607f821691505b60208210810361211f5761211e6120c5565b5b50919050565b600060408201905061213a6000830185611f2b565b6121476020830184611f2b565b9392505050565b600060408201905061216360008301856117fd565b61217060208301846117fd565b9392505050565b7f4e487b7100000000000000000000000000000000000000000000000000000000600052603260045260246000fd5b60006080820190506121bb6000830187611f2b565b6121c860208301866117fd565b6121d560408301856117fd565b6121e260608301846117fd565b95945050505050565b7f4e487b7100000000000000000000000000000000000000000000000000000000600052601160045260246000fd5b600061222582611787565b915061223083611787565b9250828201905080821115612248576122476121eb565b5b92915050565b600060408201905081810360008301526122688185611e28565b9050818103602083015261227c8184611e28565b90509392505050565b600081519050919050565b600082825260208201905092915050565b60006122ac82612285565b6122b68185612290565b93506122c681856020860161192b565b6122cf81611955565b840191505092915050565b600060a0820190506122ef6000830188611f2b565b6122fc6020830187611f2b565b61230960408301866117fd565b61231660608301856117fd565b818103608083015261232881846122a1565b90509695505050505050565b60008151905061234381611853565b92915050565b60006020828403121561235f5761235e61171f565b5b600061236d84828501612334565b91505092915050565b600060a08201905061238b6000830188611f2b565b6123986020830187611f2b565b81810360408301526123aa8186611e28565b905081810360608301526123be8185611e28565b905081810360808301526123d281846122a1565b9050969550505050505056fea2646970667358221220d507112a153dcff3991b6afb9c2b0885fae1e86ebdde5e63f2d035706899416f64736f6c634300081b0033",
  "linkReferences": {},
  "deployedLinkReferences": {}
}